{
  "_format": "hh-sol-artifact-1",
  "contractName": "CacheProtocol",
  "sourceName": "contracts/CacheProtocol.sol",
  "abi": [
    {
      "inputs": [
        {
          "internalType": "address",
          "name": "peerid",
          "type": "address"
        }
      ],
      "stateMutability": "nonpayable",
      "type": "constructor"
    },
    {
      "inputs": [],
      "name": "ECDSAInvalidSignature",
      "type": "error"
    },
    {
      "inputs": [
        {
          "internalType": "uint256",
          "name": "length",
          "type": "uint256"
        }
      ],
      "name": "ECDSAInvalidSignatureLength",
      "type": "error"
    },
    {
      "inputs": [
        {
          "internalType": "bytes32",
          "name": "s",
          "type": "bytes32"
        }
      ],
      "name": "ECDSAInvalidSignatureS",
      "type": "error"
    },
    {
      "anonymous": false,
      "inputs": [
        {
          "indexed": true,
          "internalType": "address",
          "name": "nodeAcc",
          "type": "address"
        },
        {
          "indexed": false,
          "internalType": "uint256",
          "name": "reward",
          "type": "uint256"
        }
      ],
      "name": "Claim",
      "type": "event"
    },
    {
      "anonymous": false,
      "inputs": [
        {
          "indexed": true,
          "internalType": "bytes32",
          "name": "orderId",
          "type": "bytes32"
        },
        {
          "indexed": true,
          "internalType": "address",
          "name": "nodeAcc",
          "type": "address"
        }
      ],
      "name": "OrderPayment",
      "type": "event"
    },
    {
      "anonymous": false,
      "inputs": [
        {
          "indexed": true,
          "internalType": "address",
          "name": "nodeAcc",
          "type": "address"
        },
        {
          "indexed": true,
          "internalType": "uint256",
          "name": "tokenId",
          "type": "uint256"
        }
      ],
      "name": "Staking",
      "type": "event"
    },
    {
      "inputs": [
        {
          "internalType": "address",
          "name": "",
          "type": "address"
        }
      ],
      "name": "CacheReward",
      "outputs": [
        {
          "internalType": "uint256",
          "name": "",
          "type": "uint256"
        }
      ],
      "stateMutability": "view",
      "type": "function"
    },
    {
      "inputs": [
        {
          "internalType": "address",
          "name": "",
          "type": "address"
        }
      ],
      "name": "Node",
      "outputs": [
        {
          "internalType": "bool",
          "name": "created",
          "type": "bool"
        },
        {
          "internalType": "uint256",
          "name": "collerate",
          "type": "uint256"
        },
        {
          "internalType": "uint256",
          "name": "tokenId",
          "type": "uint256"
        },
        {
          "internalType": "bytes",
          "name": "peerId",
          "type": "bytes"
        }
      ],
      "stateMutability": "view",
      "type": "function"
    },
    {
      "inputs": [
        {
          "internalType": "bytes32",
          "name": "",
          "type": "bytes32"
        }
      ],
      "name": "Order",
      "outputs": [
        {
          "internalType": "uint256",
          "name": "value",
          "type": "uint256"
        },
        {
          "internalType": "address",
          "name": "creater",
          "type": "address"
        },
        {
          "internalType": "address",
          "name": "node",
          "type": "address"
        },
        {
          "internalType": "uint256",
          "name": "term",
          "type": "uint256"
        }
      ],
      "stateMutability": "view",
      "type": "function"
    },
    {
      "inputs": [
        {
          "internalType": "address",
          "name": "",
          "type": "address"
        }
      ],
      "name": "OrderNum",
      "outputs": [
        {
          "internalType": "uint256",
          "name": "",
          "type": "uint256"
        }
      ],
      "stateMutability": "view",
      "type": "function"
    },
    {
      "inputs": [
        {
          "internalType": "address",
          "name": "",
          "type": "address"
        }
      ],
      "name": "RewardRecord",
      "outputs": [
        {
          "internalType": "uint256",
          "name": "",
          "type": "uint256"
        }
      ],
      "stateMutability": "view",
      "type": "function"
    },
    {
      "inputs": [
        {
          "internalType": "uint256",
          "name": "",
          "type": "uint256"
        }
      ],
      "name": "TermTotalOrder",
      "outputs": [
        {
          "internalType": "uint256",
          "name": "",
          "type": "uint256"
        }
      ],
      "stateMutability": "view",
      "type": "function"
    },
    {
      "inputs": [
        {
          "internalType": "uint256",
          "name": "",
          "type": "uint256"
        }
      ],
      "name": "TokenBonded",
      "outputs": [
        {
          "internalType": "bool",
          "name": "",
          "type": "bool"
        }
      ],
      "stateMutability": "view",
      "type": "function"
    },
    {
      "inputs": [
        {
          "internalType": "address",
          "name": "nodeAcc",
          "type": "address"
        }
      ],
      "name": "cacheOrderPayment",
      "outputs": [],
      "stateMutability": "payable",
      "type": "function"
    },
    {
      "inputs": [],
      "name": "claim",
      "outputs": [],
      "stateMutability": "nonpayable",
      "type": "function"
    },
    {
      "inputs": [],
      "name": "exit",
      "outputs": [],
      "stateMutability": "nonpayable",
      "type": "function"
    },
    {
      "inputs": [],
      "name": "getCurrencyTerm",
      "outputs": [
        {
          "internalType": "uint256",
          "name": "",
          "type": "uint256"
        }
      ],
      "stateMutability": "view",
      "type": "function"
    },
    {
      "inputs": [
        {
          "internalType": "address",
          "name": "_account",
          "type": "address"
        },
        {
          "internalType": "uint256",
          "name": "_tokenId",
          "type": "uint256"
        }
      ],
      "name": "getMessageHash",
      "outputs": [
        {
          "internalType": "bytes32",
          "name": "",
          "type": "bytes32"
        }
      ],
      "stateMutability": "pure",
      "type": "function"
    },
    {
      "inputs": [
        {
          "internalType": "address",
          "name": "acc",
          "type": "address"
        },
        {
          "internalType": "uint256",
          "name": "tokenId",
          "type": "uint256"
        }
      ],
      "name": "isTokenOwner",
      "outputs": [
        {
          "internalType": "bool",
          "name": "",
          "type": "bool"
        }
      ],
      "stateMutability": "view",
      "type": "function"
    },
    {
      "inputs": [
        {
          "internalType": "bytes32",
          "name": "_msgHash",
          "type": "bytes32"
        },
        {
          "internalType": "bytes",
          "name": "_signature",
          "type": "bytes"
        }
      ],
      "name": "openRecover",
      "outputs": [
        {
          "internalType": "address",
          "name": "",
          "type": "address"
        }
      ],
      "stateMutability": "view",
      "type": "function"
    },
    {
      "inputs": [
        {
          "internalType": "bytes32",
          "name": "_msgHash",
          "type": "bytes32"
        },
        {
          "internalType": "bytes",
          "name": "_signature",
          "type": "bytes"
        }
      ],
      "name": "recoverSigner",
      "outputs": [
        {
          "internalType": "address",
          "name": "",
          "type": "address"
        }
      ],
      "stateMutability": "pure",
      "type": "function"
    },
    {
      "inputs": [
        {
          "internalType": "address",
          "name": "nodeAcc",
          "type": "address"
        },
        {
          "internalType": "address",
          "name": "tokenAcc",
          "type": "address"
        },
        {
          "internalType": "uint256",
          "name": "tokenId",
          "type": "uint256"
        },
        {
          "internalType": "bytes",
          "name": "_peerId",
          "type": "bytes"
        },
        {
          "internalType": "bytes",
          "name": "_signature",
          "type": "bytes"
        }
      ],
      "name": "staking",
      "outputs": [],
      "stateMutability": "payable",
      "type": "function"
    },
    {
      "inputs": [
        {
          "internalType": "bytes32",
          "name": "hash",
          "type": "bytes32"
        }
      ],
      "name": "toEthSignedMessageHash",
      "outputs": [
        {
          "internalType": "bytes32",
          "name": "",
          "type": "bytes32"
        }
      ],
      "stateMutability": "pure",
      "type": "function"
    },
    {
      "inputs": [
        {
          "internalType": "bytes32",
          "name": "_msgHash",
          "type": "bytes32"
        },
        {
          "internalType": "bytes",
          "name": "_signature",
          "type": "bytes"
        },
        {
          "internalType": "address",
          "name": "_signer",
          "type": "address"
        }
      ],
      "name": "verify",
      "outputs": [
        {
          "internalType": "bool",
          "name": "",
          "type": "bool"
        }
      ],
      "stateMutability": "pure",
      "type": "function"
    }
  ],
  "bytecode": "0x60806040523480156200001157600080fd5b5060405162002e8b38038062002e8b833981810160405281019062000037919062000130565b806000806101000a81548173ffffffffffffffffffffffffffffffffffffffff021916908373ffffffffffffffffffffffffffffffffffffffff16021790555033600160006101000a81548173ffffffffffffffffffffffffffffffffffffffff021916908373ffffffffffffffffffffffffffffffffffffffff160217905550426002819055505062000162565b600080fd5b600073ffffffffffffffffffffffffffffffffffffffff82169050919050565b6000620000f882620000cb565b9050919050565b6200010a81620000eb565b81146200011657600080fd5b50565b6000815190506200012a81620000ff565b92915050565b600060208284031215620001495762000148620000c6565b5b6000620001598482850162000119565b91505092915050565b612d1980620001726000396000f3fe6080604052600436106101095760003560e01c8063823ac3731161009557806398f7ceab1161006457806398f7ceab146103b3578063b6a525cb146103f0578063e97e23e61461042d578063e9fad8ee1461046a578063eeca2ab61461048157610109565b8063823ac373146102bf5780638b166d64146102fc578063918a15cf1461033957806397aba7f91461037657610109565b8063564f4c8b116100dc578063564f4c8b146101bb5780635f6296f9146101fb5780636d19c92a146102175780636f0173b7146102575780637094d9041461028257610109565b8063035339821461010e5780632f7043821461012a5780634e71d92d14610167578063512c91df1461017e575b600080fd5b61012860048036038101906101239190611e59565b6104be565b005b34801561013657600080fd5b50610151600480360381019061014c9190611f0c565b6107d7565b60405161015e9190611f48565b60405180910390f35b34801561017357600080fd5b5061017c6107ef565b005b34801561018a57600080fd5b506101a560048036038101906101a09190611f63565b610d14565b6040516101b29190611fbc565b60405180910390f35b3480156101c757600080fd5b506101e260048036038101906101dd9190612003565b610d47565b6040516101f2949392919061203f565b60405180910390f35b61021560048036038101906102109190611f0c565b610db7565b005b34801561022357600080fd5b5061023e60048036038101906102399190611f0c565b6110f3565b60405161024e949392919061211e565b60405180910390f35b34801561026357600080fd5b5061026c6111b8565b6040516102799190611f48565b60405180910390f35b34801561028e57600080fd5b506102a960048036038101906102a4919061216a565b6111db565b6040516102b69190612197565b60405180910390f35b3480156102cb57600080fd5b506102e660048036038101906102e191906121b2565b6111fb565b6040516102f39190612197565b60405180910390f35b34801561030857600080fd5b50610323600480360381019061031e9190611f0c565b61123e565b6040516103309190611f48565b60405180910390f35b34801561034557600080fd5b50610360600480360381019061035b9190612003565b611256565b60405161036d9190611fbc565b60405180910390f35b34801561038257600080fd5b5061039d60048036038101906103989190612221565b611286565b6040516103aa919061227d565b60405180910390f35b3480156103bf57600080fd5b506103da60048036038101906103d59190611f63565b611343565b6040516103e79190612197565b60405180910390f35b3480156103fc57600080fd5b5061041760048036038101906104129190612221565b61141a565b604051610424919061227d565b60405180910390f35b34801561043957600080fd5b50610454600480360381019061044f919061216a565b611510565b6040516104619190611f48565b60405180910390f35b34801561047657600080fd5b5061047f611528565b005b34801561048d57600080fd5b506104a860048036038101906104a39190611f0c565b611887565b6040516104b59190611f48565b60405180910390f35b68a2a15d09519be0000034101561050a576040517f08c379a0000000000000000000000000000000000000000000000000000000008152600401610501906122f5565b60405180910390fd5b600015156105188585611343565b15150361055a576040517f08c379a000000000000000000000000000000000000000000000000000000000815260040161055190612361565b60405180910390fd5b60006105668685610d14565b9050600061057382611256565b9050600015156105848285896111fb565b1515036105c6576040517f08c379a00000000000000000000000000000000000000000000000000000000081526004016105bd906123cd565b60405180910390fd5b604051806080016040528060011515815260200134815260200186815260200185815250600860008973ffffffffffffffffffffffffffffffffffffffff1673ffffffffffffffffffffffffffffffffffffffff16815260200190815260200160002060008201518160000160006101000a81548160ff0219169083151502179055506020820151816001015560408201518160020155606082015181600301908161067291906125f9565b509050506000600660008973ffffffffffffffffffffffffffffffffffffffff1673ffffffffffffffffffffffffffffffffffffffff168152602001908152602001600020819055506000600a60008973ffffffffffffffffffffffffffffffffffffffff1673ffffffffffffffffffffffffffffffffffffffff168152602001908152602001600020819055506000600b60008973ffffffffffffffffffffffffffffffffffffffff1673ffffffffffffffffffffffffffffffffffffffff16815260200190815260200160002081905550346005600082825461075791906126fa565b9250508190555060016009600087815260200190815260200160002060006101000a81548160ff021916908315150217905550848773ffffffffffffffffffffffffffffffffffffffff167fb831f69f1cebc12b23cd864ce5bfea2669d01956050a0147d71d418074559c2160405160405180910390a350505050505050565b60066020528060005260406000206000915090505481565b60006107f96111b8565b9050600181610808919061272e565b600b60003373ffffffffffffffffffffffffffffffffffffffff1673ffffffffffffffffffffffffffffffffffffffff1681526020019081526020016000205410610888576040517f08c379a000000000000000000000000000000000000000000000000000000000815260040161087f906127d4565b60405180910390fd5b6000600860003373ffffffffffffffffffffffffffffffffffffffff1673ffffffffffffffffffffffffffffffffffffffff1681526020019081526020016000206040518060800160405290816000820160009054906101000a900460ff1615151515815260200160018201548152602001600282015481526020016003820180546109139061241c565b80601f016020809104026020016040519081016040528092919081815260200182805461093f9061241c565b801561098c5780601f106109615761010080835404028352916020019161098c565b820191906000526020600020905b81548152906001019060200180831161096f57829003601f168201915b505050505081525050905080600001516109db576040517f08c379a00000000000000000000000000000000000000000000000000000000081526004016109d290612840565b60405180910390fd5b60006109e561189f565b90506000600760006001866109fa919061272e565b815260200190815260200160002054600354610a1691906126fa565b9050600081600354610a28919061288f565b90506000600660003373ffffffffffffffffffffffffffffffffffffffff1673ffffffffffffffffffffffffffffffffffffffff1681526020019081526020016000205490506000600a60003373ffffffffffffffffffffffffffffffffffffffff1673ffffffffffffffffffffffffffffffffffffffff168152602001908152602001600020549050600069152d02c7e14af6800000600a60026005548a60200151610ad5919061288f565b610adf91906128c0565b610ae9919061288f565b600a6002888888610afa919061272e565b8b610b0591906128c0565b89610b1091906126fa565b610b1a919061288f565b610b2491906128c0565b610b2e919061288f565b610b3891906126fa565b610b4291906128c0565b90506000606460288385610b5691906126fa565b610b6091906128c0565b610b6a919061288f565b9050808284610b7991906126fa565b610b83919061272e565b600a60003373ffffffffffffffffffffffffffffffffffffffff1673ffffffffffffffffffffffffffffffffffffffff168152602001908152602001600020819055503373ffffffffffffffffffffffffffffffffffffffff166108fc829081150290604051600060405180830381858888f19350505050158015610c0c573d6000803e3d6000fd5b50600189610c1a919061272e565b600b60003373ffffffffffffffffffffffffffffffffffffffff1673ffffffffffffffffffffffffffffffffffffffff168152602001908152602001600020819055506000600660003373ffffffffffffffffffffffffffffffffffffffff1673ffffffffffffffffffffffffffffffffffffffff168152602001908152602001600020819055508360046000828254610cb4919061272e565b925050819055503373ffffffffffffffffffffffffffffffffffffffff167f47cee97cb7acd717b3c0aa1435d004cd5b3c8c57d70dbceb4e4458bbd60e39d482604051610d019190611f48565b60405180910390a2505050505050505050565b60008282604051602001610d2992919061296b565b60405160208183030381529060405280519060200120905092915050565b600c6020528060005260406000206000915090508060000154908060010160009054906101000a900473ffffffffffffffffffffffffffffffffffffffff16908060020160009054906101000a900473ffffffffffffffffffffffffffffffffffffffff16908060030154905084565b67016345785d8a0000341015610e02576040517f08c379a0000000000000000000000000000000000000000000000000000000008152600401610df9906129e3565b60405180910390fd5b6000610e0c6111b8565b90506000610e19836118fc565b9050600060405180608001604052803481526020013373ffffffffffffffffffffffffffffffffffffffff1681526020018573ffffffffffffffffffffffffffffffffffffffff16815260200184815250905080600c60008481526020019081526020016000206000820151816000015560208201518160010160006101000a81548173ffffffffffffffffffffffffffffffffffffffff021916908373ffffffffffffffffffffffffffffffffffffffff16021790555060408201518160020160006101000a81548173ffffffffffffffffffffffffffffffffffffffff021916908373ffffffffffffffffffffffffffffffffffffffff16021790555060608201518160030155905050600067016345785d8a000034610f3b919061288f565b905080600660008773ffffffffffffffffffffffffffffffffffffffff1673ffffffffffffffffffffffffffffffffffffffff1681526020019081526020016000206000828254610f8c91906126fa565b925050819055506000600760008681526020019081526020016000205403610ff657600454816007600087815260200190815260200160002054610fd091906126fa565b610fda91906126fa565b6007600086815260200190815260200160002081905550611021565b8060076000868152602001908152602001600020600082825461101991906126fa565b925050819055505b806004600082825461103391906126fa565b92505081905550606460503461104991906128c0565b611053919061288f565b600a60008773ffffffffffffffffffffffffffffffffffffffff1673ffffffffffffffffffffffffffffffffffffffff16815260200190815260200160002060008282546110a191906126fa565b925050819055508473ffffffffffffffffffffffffffffffffffffffff16837fd56b6efb3032698dabc9d765e5f94cfafbd4903326a2ae5c831b7da1bde226f060405160405180910390a35050505050565b60086020528060005260406000206000915090508060000160009054906101000a900460ff16908060010154908060020154908060030180546111359061241c565b80601f01602080910402602001604051908101604052809291908181526020018280546111619061241c565b80156111ae5780601f10611183576101008083540402835291602001916111ae565b820191906000526020600020905b81548152906001019060200180831161119157829003601f168201915b5050505050905084565b600062093a80600254426111cc919061272e565b6111d6919061288f565b905090565b60096020528060005260406000206000915054906101000a900460ff1681565b60008173ffffffffffffffffffffffffffffffffffffffff1661121e8585611286565b73ffffffffffffffffffffffffffffffffffffffff161490509392505050565b600a6020528060005260406000206000915090505481565b6000816040516020016112699190612a7b565b604051602081830303815290604052805190602001209050919050565b600060418251146112cc576040517f08c379a00000000000000000000000000000000000000000000000000000000081526004016112c390612aed565b60405180910390fd5b60008060006020850151925060408501519150606085015160001a90506001868285856040516000815260200160405260405161130c9493929190612b29565b6020604051602081039080840390855afa15801561132e573d6000803e3d6000fd5b50505060206040510351935050505092915050565b60008060008054906101000a900473ffffffffffffffffffffffffffffffffffffffff1673ffffffffffffffffffffffffffffffffffffffff16636352211e846040518263ffffffff1660e01b815260040161139f9190611f48565b602060405180830381865afa1580156113bc573d6000803e3d6000fd5b505050506040513d601f19601f820116820180604052508101906113e09190612b83565b90508373ffffffffffffffffffffffffffffffffffffffff168173ffffffffffffffffffffffffffffffffffffffff161491505092915050565b600080611427848461192e565b9050600073ffffffffffffffffffffffffffffffffffffffff168173ffffffffffffffffffffffffffffffffffffffff1603611498576040517f08c379a000000000000000000000000000000000000000000000000000000000815260040161148f90612bfc565b60405180910390fd5b3373ffffffffffffffffffffffffffffffffffffffff168173ffffffffffffffffffffffffffffffffffffffff1614611506576040517f08c379a00000000000000000000000000000000000000000000000000000000081526004016114fd90612c68565b60405180910390fd5b8091505092915050565b60076020528060005260406000206000915090505481565b6000600860003373ffffffffffffffffffffffffffffffffffffffff1673ffffffffffffffffffffffffffffffffffffffff1681526020019081526020016000206040518060800160405290816000820160009054906101000a900460ff1615151515815260200160018201548152602001600282015481526020016003820180546115b39061241c565b80601f01602080910402602001604051908101604052809291908181526020018280546115df9061241c565b801561162c5780601f106116015761010080835404028352916020019161162c565b820191906000526020600020905b81548152906001019060200180831161160f57829003601f168201915b5050505050815250509050806000015161167b576040517f08c379a000000000000000000000000000000000000000000000000000000000815260040161167290612840565b60405180910390fd5b3373ffffffffffffffffffffffffffffffffffffffff166108fc82602001519081150290604051600060405180830381858888f193505050501580156116c5573d6000803e3d6000fd5b50600660003373ffffffffffffffffffffffffffffffffffffffff1673ffffffffffffffffffffffffffffffffffffffff1681526020019081526020016000205460046000828254611717919061272e565b92505081905550600660003373ffffffffffffffffffffffffffffffffffffffff1673ffffffffffffffffffffffffffffffffffffffff16815260200190815260200160002060009055600860003373ffffffffffffffffffffffffffffffffffffffff1673ffffffffffffffffffffffffffffffffffffffff168152602001908152602001600020600080820160006101000a81549060ff0219169055600182016000905560028201600090556003820160006117d59190611c0e565b5050600b60003373ffffffffffffffffffffffffffffffffffffffff1673ffffffffffffffffffffffffffffffffffffffff16815260200190815260200160002060009055600a60003373ffffffffffffffffffffffffffffffffffffffff1673ffffffffffffffffffffffffffffffffffffffff16815260200190815260200160002060009055600960008260400151815260200190815260200160002060006101000a81549060ff021916905550565b600b6020528060005260406000206000915090505481565b60006117706118ac6111b8565b60266118b891906128c0565b6107d06118c591906126fa565b10156118f3576118d36111b8565b60266118df91906128c0565b6107d06118ec91906126fa565b90506118f9565b61177090505b90565b60004282604051602001611911929190612c88565b604051602081830303815290604052805190602001209050919050565b60008060008061193e868661195a565b92509250925061194e82826119b6565b82935050505092915050565b6000806000604184510361199f5760008060006020870151925060408701519150606087015160001a905061199188828585611b1a565b9550955095505050506119af565b60006002855160001b9250925092505b9250925092565b600060038111156119ca576119c9612cb4565b5b8260038111156119dd576119dc612cb4565b5b0315611b1657600160038111156119f7576119f6612cb4565b5b826003811115611a0a57611a09612cb4565b5b03611a41576040517ff645eedf00000000000000000000000000000000000000000000000000000000815260040160405180910390fd5b60026003811115611a5557611a54612cb4565b5b826003811115611a6857611a67612cb4565b5b03611aad578060001c6040517ffce698f7000000000000000000000000000000000000000000000000000000008152600401611aa49190611f48565b60405180910390fd5b600380811115611ac057611abf612cb4565b5b826003811115611ad357611ad2612cb4565b5b03611b1557806040517fd78bce0c000000000000000000000000000000000000000000000000000000008152600401611b0c9190611fbc565b60405180910390fd5b5b5050565b60008060007f7fffffffffffffffffffffffffffffff5d576e7357a4501ddfe92f46681b20a08460001c1115611b5a576000600385925092509250611c04565b600060018888888860405160008152602001604052604051611b7f9493929190612b29565b6020604051602081039080840390855afa158015611ba1573d6000803e3d6000fd5b505050602060405103519050600073ffffffffffffffffffffffffffffffffffffffff168173ffffffffffffffffffffffffffffffffffffffff1603611bf557600060016000801b93509350935050611c04565b8060008060001b935093509350505b9450945094915050565b508054611c1a9061241c565b6000825580601f10611c2c5750611c4b565b601f016020900490600052602060002090810190611c4a9190611c4e565b5b50565b5b80821115611c67576000816000905550600101611c4f565b5090565b6000604051905090565b600080fd5b600080fd5b600073ffffffffffffffffffffffffffffffffffffffff82169050919050565b6000611caa82611c7f565b9050919050565b611cba81611c9f565b8114611cc557600080fd5b50565b600081359050611cd781611cb1565b92915050565b6000819050919050565b611cf081611cdd565b8114611cfb57600080fd5b50565b600081359050611d0d81611ce7565b92915050565b600080fd5b600080fd5b6000601f19601f8301169050919050565b7f4e487b7100000000000000000000000000000000000000000000000000000000600052604160045260246000fd5b611d6682611d1d565b810181811067ffffffffffffffff82111715611d8557611d84611d2e565b5b80604052505050565b6000611d98611c6b565b9050611da48282611d5d565b919050565b600067ffffffffffffffff821115611dc457611dc3611d2e565b5b611dcd82611d1d565b9050602081019050919050565b82818337600083830152505050565b6000611dfc611df784611da9565b611d8e565b905082815260208101848484011115611e1857611e17611d18565b5b611e23848285611dda565b509392505050565b600082601f830112611e4057611e3f611d13565b5b8135611e50848260208601611de9565b91505092915050565b600080600080600060a08688031215611e7557611e74611c75565b5b6000611e8388828901611cc8565b9550506020611e9488828901611cc8565b9450506040611ea588828901611cfe565b935050606086013567ffffffffffffffff811115611ec657611ec5611c7a565b5b611ed288828901611e2b565b925050608086013567ffffffffffffffff811115611ef357611ef2611c7a565b5b611eff88828901611e2b565b9150509295509295909350565b600060208284031215611f2257611f21611c75565b5b6000611f3084828501611cc8565b91505092915050565b611f4281611cdd565b82525050565b6000602082019050611f5d6000830184611f39565b92915050565b60008060408385031215611f7a57611f79611c75565b5b6000611f8885828601611cc8565b9250506020611f9985828601611cfe565b9150509250929050565b6000819050919050565b611fb681611fa3565b82525050565b6000602082019050611fd16000830184611fad565b92915050565b611fe081611fa3565b8114611feb57600080fd5b50565b600081359050611ffd81611fd7565b92915050565b60006020828403121561201957612018611c75565b5b600061202784828501611fee565b91505092915050565b61203981611c9f565b82525050565b60006080820190506120546000830187611f39565b6120616020830186612030565b61206e6040830185612030565b61207b6060830184611f39565b95945050505050565b60008115159050919050565b61209981612084565b82525050565b600081519050919050565b600082825260208201905092915050565b60005b838110156120d95780820151818401526020810190506120be565b60008484015250505050565b60006120f08261209f565b6120fa81856120aa565b935061210a8185602086016120bb565b61211381611d1d565b840191505092915050565b60006080820190506121336000830187612090565b6121406020830186611f39565b61214d6040830185611f39565b818103606083015261215f81846120e5565b905095945050505050565b6000602082840312156121805761217f611c75565b5b600061218e84828501611cfe565b91505092915050565b60006020820190506121ac6000830184612090565b92915050565b6000806000606084860312156121cb576121ca611c75565b5b60006121d986828701611fee565b935050602084013567ffffffffffffffff8111156121fa576121f9611c7a565b5b61220686828701611e2b565b925050604061221786828701611cc8565b9150509250925092565b6000806040838503121561223857612237611c75565b5b600061224685828601611fee565b925050602083013567ffffffffffffffff81111561226757612266611c7a565b5b61227385828601611e2b565b9150509250929050565b60006020820190506122926000830184612030565b92915050565b600082825260208201905092915050565b7f496e73756666696369656e7420706c6564676520616d6f756e74000000000000600082015250565b60006122df601a83612298565b91506122ea826122a9565b602082019050919050565b6000602082019050818103600083015261230e816122d2565b9050919050565b7f4e6f742074686520746f6b656e20686f6c646572000000000000000000000000600082015250565b600061234b601483612298565b915061235682612315565b602082019050919050565b6000602082019050818103600083015261237a8161233e565b9050919050565b7f766572696679207369676e6174757265206661696c6564000000000000000000600082015250565b60006123b7601783612298565b91506123c282612381565b602082019050919050565b600060208201905081810360008301526123e6816123aa565b9050919050565b7f4e487b7100000000000000000000000000000000000000000000000000000000600052602260045260246000fd5b6000600282049050600182168061243457607f821691505b602082108103612447576124466123ed565b5b50919050565b60008190508160005260206000209050919050565b60006020601f8301049050919050565b600082821b905092915050565b6000600883026124af7fffffffffffffffffffffffffffffffffffffffffffffffffffffffffffffffff82612472565b6124b98683612472565b95508019841693508086168417925050509392505050565b6000819050919050565b60006124f66124f16124ec84611cdd565b6124d1565b611cdd565b9050919050565b6000819050919050565b612510836124db565b61252461251c826124fd565b84845461247f565b825550505050565b600090565b61253961252c565b612544818484612507565b505050565b5b818110156125685761255d600082612531565b60018101905061254a565b5050565b601f8211156125ad5761257e8161244d565b61258784612462565b81016020851015612596578190505b6125aa6125a285612462565b830182612549565b50505b505050565b600082821c905092915050565b60006125d0600019846008026125b2565b1980831691505092915050565b60006125e983836125bf565b9150826002028217905092915050565b6126028261209f565b67ffffffffffffffff81111561261b5761261a611d2e565b5b612625825461241c565b61263082828561256c565b600060209050601f8311600181146126635760008415612651578287015190505b61265b85826125dd565b8655506126c3565b601f1984166126718661244d565b60005b8281101561269957848901518255600182019150602085019450602081019050612674565b868310156126b657848901516126b2601f8916826125bf565b8355505b6001600288020188555050505b505050505050565b7f4e487b7100000000000000000000000000000000000000000000000000000000600052601160045260246000fd5b600061270582611cdd565b915061271083611cdd565b9250828201905080821115612728576127276126cb565b5b92915050565b600061273982611cdd565b915061274483611cdd565b925082820390508181111561275c5761275b6126cb565b5b92915050565b7f506c65617365207761697420756e74696c20746865206e657874207465726d2060008201527f746f20636c61696d207468652072657761726400000000000000000000000000602082015250565b60006127be603383612298565b91506127c982612762565b604082019050919050565b600060208201905081810360008301526127ed816127b1565b9050919050565b7f4361636865206e6f6465206e6f74207265676973746572656400000000000000600082015250565b600061282a601983612298565b9150612835826127f4565b602082019050919050565b600060208201905081810360008301526128598161281d565b9050919050565b7f4e487b7100000000000000000000000000000000000000000000000000000000600052601260045260246000fd5b600061289a82611cdd565b91506128a583611cdd565b9250826128b5576128b4612860565b5b828204905092915050565b60006128cb82611cdd565b91506128d683611cdd565b92508282026128e481611cdd565b915082820484148315176128fb576128fa6126cb565b5b5092915050565b60008160601b9050919050565b600061291a82612902565b9050919050565b600061292c8261290f565b9050919050565b61294461293f82611c9f565b612921565b82525050565b6000819050919050565b61296561296082611cdd565b61294a565b82525050565b60006129778285612933565b6014820191506129878284612954565b6020820191508190509392505050565b7f496e73756666696369656e7420616d6f756e7400000000000000000000000000600082015250565b60006129cd601383612298565b91506129d882612997565b602082019050919050565b600060208201905081810360008301526129fc816129c0565b9050919050565b600081905092915050565b7f19457468657265756d205369676e6564204d6573736167653a0a333200000000600082015250565b6000612a44601c83612a03565b9150612a4f82612a0e565b601c82019050919050565b6000819050919050565b612a75612a7082611fa3565b612a5a565b82525050565b6000612a8682612a37565b9150612a928284612a64565b60208201915081905092915050565b7f696e76616c6964207369676e6174757265206c656e6774680000000000000000600082015250565b6000612ad7601883612298565b9150612ae282612aa1565b602082019050919050565b60006020820190508181036000830152612b0681612aca565b9050919050565b600060ff82169050919050565b612b2381612b0d565b82525050565b6000608082019050612b3e6000830187611fad565b612b4b6020830186612b1a565b612b586040830185611fad565b612b656060830184611fad565b95945050505050565b600081519050612b7d81611cb1565b92915050565b600060208284031215612b9957612b98611c75565b5b6000612ba784828501612b6e565b91505092915050565b7f45434453413a20696e76616c6964207369676e61747572650000000000000000600082015250565b6000612be6601883612298565b9150612bf182612bb0565b602082019050919050565b60006020820190508181036000830152612c1581612bd9565b9050919050565b7f4d7946756e6374696f6e3a20696e76616c6964207369676e6174757265000000600082015250565b6000612c52601d83612298565b9150612c5d82612c1c565b602082019050919050565b60006020820190508181036000830152612c8181612c45565b9050919050565b6000612c948285612954565b602082019150612ca48284612933565b6014820191508190509392505050565b7f4e487b7100000000000000000000000000000000000000000000000000000000600052602160045260246000fdfea264697066735822122006ba2dcfac6725415f2c0c78f55c6b599c5dac31b61fe374e655150d0c8a702a64736f6c63430008180033",
  "linkReferences": {},
  "deployedLinkReferences": {}
}