{
  "_format": "hh-sol-artifact-1",
  "contractName": "CacheProtocol",
  "sourceName": "contracts/CacheProtocol.sol",
  "abi": [
    {
      "inputs": [
        {
          "internalType": "address",
          "name": "peerid",
          "type": "address"
        }
      ],
      "stateMutability": "nonpayable",
      "type": "constructor"
    },
    {
      "inputs": [],
      "name": "ECDSAInvalidSignature",
      "type": "error"
    },
    {
      "inputs": [
        {
          "internalType": "uint256",
          "name": "length",
          "type": "uint256"
        }
      ],
      "name": "ECDSAInvalidSignatureLength",
      "type": "error"
    },
    {
      "inputs": [
        {
          "internalType": "bytes32",
          "name": "s",
          "type": "bytes32"
        }
      ],
      "name": "ECDSAInvalidSignatureS",
      "type": "error"
    },
    {
      "inputs": [
        {
          "internalType": "address",
          "name": "owner",
          "type": "address"
        }
      ],
      "name": "OwnableInvalidOwner",
      "type": "error"
    },
    {
      "inputs": [
        {
          "internalType": "address",
          "name": "account",
          "type": "address"
        }
      ],
      "name": "OwnableUnauthorizedAccount",
      "type": "error"
    },
    {
      "anonymous": false,
      "inputs": [
        {
          "indexed": true,
          "internalType": "address",
          "name": "nodeAcc",
          "type": "address"
        },
        {
          "indexed": false,
          "internalType": "uint256",
          "name": "reward",
          "type": "uint256"
        }
      ],
      "name": "Claim",
      "type": "event"
    },
    {
      "anonymous": false,
      "inputs": [
        {
          "indexed": true,
          "internalType": "address",
          "name": "nodeAcc",
          "type": "address"
        }
      ],
      "name": "Exit",
      "type": "event"
    },
    {
      "anonymous": false,
      "inputs": [
        {
          "indexed": true,
          "internalType": "address",
          "name": "teeAcc",
          "type": "address"
        },
        {
          "indexed": false,
          "internalType": "uint256",
          "name": "traffic",
          "type": "uint256"
        }
      ],
      "name": "OrderPayment",
      "type": "event"
    },
    {
      "anonymous": false,
      "inputs": [
        {
          "indexed": true,
          "internalType": "address",
          "name": "previousOwner",
          "type": "address"
        },
        {
          "indexed": true,
          "internalType": "address",
          "name": "newOwner",
          "type": "address"
        }
      ],
      "name": "OwnershipTransferred",
      "type": "event"
    },
    {
      "anonymous": false,
      "inputs": [
        {
          "indexed": true,
          "internalType": "address",
          "name": "nodeAcc",
          "type": "address"
        },
        {
          "indexed": true,
          "internalType": "uint256",
          "name": "tokenId",
          "type": "uint256"
        }
      ],
      "name": "Staking",
      "type": "event"
    },
    {
      "anonymous": false,
      "inputs": [
        {
          "indexed": true,
          "internalType": "address",
          "name": "nodeAcc",
          "type": "address"
        },
        {
          "indexed": false,
          "internalType": "uint256",
          "name": "traffic",
          "type": "uint256"
        }
      ],
      "name": "TrafficForwarding",
      "type": "event"
    },
    {
      "inputs": [
        {
          "internalType": "address",
          "name": "",
          "type": "address"
        }
      ],
      "name": "CacheReward",
      "outputs": [
        {
          "internalType": "uint256",
          "name": "",
          "type": "uint256"
        }
      ],
      "stateMutability": "view",
      "type": "function"
    },
    {
      "inputs": [
        {
          "internalType": "address",
          "name": "",
          "type": "address"
        }
      ],
      "name": "Node",
      "outputs": [
        {
          "internalType": "bool",
          "name": "created",
          "type": "bool"
        },
        {
          "internalType": "uint256",
          "name": "collerate",
          "type": "uint256"
        },
        {
          "internalType": "uint256",
          "name": "tokenId",
          "type": "uint256"
        },
        {
          "internalType": "string",
          "name": "endpoint",
          "type": "string"
        },
        {
          "internalType": "address",
          "name": "teeEth",
          "type": "address"
        },
        {
          "internalType": "bytes",
          "name": "teeCess",
          "type": "bytes"
        }
      ],
      "stateMutability": "view",
      "type": "function"
    },
    {
      "inputs": [
        {
          "internalType": "bytes32",
          "name": "",
          "type": "bytes32"
        }
      ],
      "name": "Order",
      "outputs": [
        {
          "internalType": "uint256",
          "name": "value",
          "type": "uint256"
        },
        {
          "internalType": "address",
          "name": "creater",
          "type": "address"
        },
        {
          "internalType": "address",
          "name": "node",
          "type": "address"
        },
        {
          "internalType": "uint256",
          "name": "term",
          "type": "uint256"
        }
      ],
      "stateMutability": "view",
      "type": "function"
    },
    {
      "inputs": [
        {
          "internalType": "address",
          "name": "",
          "type": "address"
        }
      ],
      "name": "RewardRecord",
      "outputs": [
        {
          "internalType": "uint256",
          "name": "",
          "type": "uint256"
        }
      ],
      "stateMutability": "view",
      "type": "function"
    },
    {
      "inputs": [
        {
          "internalType": "uint256",
          "name": "",
          "type": "uint256"
        }
      ],
      "name": "TeeNodes",
      "outputs": [
        {
          "internalType": "address",
          "name": "",
          "type": "address"
        }
      ],
      "stateMutability": "view",
      "type": "function"
    },
    {
      "inputs": [
        {
          "internalType": "uint256",
          "name": "",
          "type": "uint256"
        }
      ],
      "name": "TermTotalTraffic",
      "outputs": [
        {
          "internalType": "uint256",
          "name": "",
          "type": "uint256"
        }
      ],
      "stateMutability": "view",
      "type": "function"
    },
    {
      "inputs": [
        {
          "internalType": "uint256",
          "name": "",
          "type": "uint256"
        }
      ],
      "name": "TokenBonded",
      "outputs": [
        {
          "internalType": "bool",
          "name": "",
          "type": "bool"
        }
      ],
      "stateMutability": "view",
      "type": "function"
    },
    {
      "inputs": [
        {
          "internalType": "address",
          "name": "",
          "type": "address"
        }
      ],
      "name": "TrafficNum",
      "outputs": [
        {
          "internalType": "uint256",
          "name": "",
          "type": "uint256"
        }
      ],
      "stateMutability": "view",
      "type": "function"
    },
    {
      "inputs": [],
      "name": "UnitPrice",
      "outputs": [
        {
          "internalType": "uint256",
          "name": "",
          "type": "uint256"
        }
      ],
      "stateMutability": "view",
      "type": "function"
    },
    {
      "inputs": [
        {
          "internalType": "address",
          "name": "",
          "type": "address"
        },
        {
          "internalType": "address",
          "name": "",
          "type": "address"
        }
      ],
      "name": "UserTrafficMap",
      "outputs": [
        {
          "internalType": "uint256",
          "name": "",
          "type": "uint256"
        }
      ],
      "stateMutability": "view",
      "type": "function"
    },
    {
      "inputs": [
        {
          "internalType": "address",
          "name": "_teeAcc",
          "type": "address"
        },
        {
          "internalType": "uint256",
          "name": "_traffic",
          "type": "uint256"
        }
      ],
      "name": "cacheOrderPayment",
      "outputs": [],
      "stateMutability": "payable",
      "type": "function"
    },
    {
      "inputs": [],
      "name": "claim",
      "outputs": [],
      "stateMutability": "nonpayable",
      "type": "function"
    },
    {
      "inputs": [],
      "name": "exit",
      "outputs": [],
      "stateMutability": "nonpayable",
      "type": "function"
    },
    {
      "inputs": [],
      "name": "getCurrencyTerm",
      "outputs": [
        {
          "internalType": "uint256",
          "name": "",
          "type": "uint256"
        }
      ],
      "stateMutability": "view",
      "type": "function"
    },
    {
      "inputs": [
        {
          "internalType": "address",
          "name": "_account",
          "type": "address"
        },
        {
          "internalType": "uint256",
          "name": "_tokenId",
          "type": "uint256"
        }
      ],
      "name": "getMessageHash",
      "outputs": [
        {
          "internalType": "bytes32",
          "name": "",
          "type": "bytes32"
        }
      ],
      "stateMutability": "pure",
      "type": "function"
    },
    {
      "inputs": [
        {
          "internalType": "address",
          "name": "acc",
          "type": "address"
        },
        {
          "internalType": "uint256",
          "name": "tokenId",
          "type": "uint256"
        }
      ],
      "name": "isTokenOwner",
      "outputs": [
        {
          "internalType": "bool",
          "name": "",
          "type": "bool"
        }
      ],
      "stateMutability": "view",
      "type": "function"
    },
    {
      "inputs": [
        {
          "internalType": "bytes32",
          "name": "_msgHash",
          "type": "bytes32"
        },
        {
          "internalType": "bytes",
          "name": "_signature",
          "type": "bytes"
        }
      ],
      "name": "openRecover",
      "outputs": [
        {
          "internalType": "address",
          "name": "",
          "type": "address"
        }
      ],
      "stateMutability": "view",
      "type": "function"
    },
    {
      "inputs": [],
      "name": "owner",
      "outputs": [
        {
          "internalType": "address",
          "name": "",
          "type": "address"
        }
      ],
      "stateMutability": "view",
      "type": "function"
    },
    {
      "inputs": [
        {
          "internalType": "bytes32",
          "name": "_msgHash",
          "type": "bytes32"
        },
        {
          "internalType": "bytes",
          "name": "_signature",
          "type": "bytes"
        }
      ],
      "name": "recoverSigner",
      "outputs": [
        {
          "internalType": "address",
          "name": "",
          "type": "address"
        }
      ],
      "stateMutability": "pure",
      "type": "function"
    },
    {
      "inputs": [],
      "name": "renounceOwnership",
      "outputs": [],
      "stateMutability": "nonpayable",
      "type": "function"
    },
    {
      "inputs": [
        {
          "internalType": "address",
          "name": "nodeAcc",
          "type": "address"
        },
        {
          "internalType": "address",
          "name": "tokenAcc",
          "type": "address"
        },
        {
          "internalType": "uint256",
          "name": "tokenId",
          "type": "uint256"
        },
        {
          "internalType": "string",
          "name": "_endpoint",
          "type": "string"
        },
        {
          "internalType": "bytes",
          "name": "_signature",
          "type": "bytes"
        },
        {
          "internalType": "address",
          "name": "_teeEth",
          "type": "address"
        },
        {
          "internalType": "bytes",
          "name": "_teeCess",
          "type": "bytes"
        }
      ],
      "name": "staking",
      "outputs": [],
      "stateMutability": "payable",
      "type": "function"
    },
    {
      "inputs": [
        {
          "internalType": "bytes32",
          "name": "hash",
          "type": "bytes32"
        }
      ],
      "name": "toEthSignedMessageHash",
      "outputs": [
        {
          "internalType": "bytes32",
          "name": "",
          "type": "bytes32"
        }
      ],
      "stateMutability": "pure",
      "type": "function"
    },
    {
      "inputs": [
        {
          "internalType": "address",
          "name": "user",
          "type": "address"
        },
        {
          "internalType": "address",
          "name": "_nodeAcc",
          "type": "address"
        },
        {
          "internalType": "uint256",
          "name": "_traffic",
          "type": "uint256"
        }
      ],
      "name": "trafficForwarding",
      "outputs": [],
      "stateMutability": "nonpayable",
      "type": "function"
    },
    {
      "inputs": [
        {
          "internalType": "address",
          "name": "newOwner",
          "type": "address"
        }
      ],
      "name": "transferOwnership",
      "outputs": [],
      "stateMutability": "nonpayable",
      "type": "function"
    },
    {
      "inputs": [
        {
          "internalType": "uint256",
          "name": "_price",
          "type": "uint256"
        }
      ],
      "name": "updateUnitPrice",
      "outputs": [],
      "stateMutability": "nonpayable",
      "type": "function"
    },
    {
      "inputs": [
        {
          "internalType": "bytes32",
          "name": "_msgHash",
          "type": "bytes32"
        },
        {
          "internalType": "bytes",
          "name": "_signature",
          "type": "bytes"
        },
        {
          "internalType": "address",
          "name": "_signer",
          "type": "address"
        }
      ],
      "name": "verify",
      "outputs": [
        {
          "internalType": "bool",
          "name": "",
          "type": "bool"
        }
      ],
      "stateMutability": "pure",
      "type": "function"
    }
  ],
  "bytecode": "0x60806040523480156200001157600080fd5b5060405162003aab38038062003aab833981810160405281019062000037919062000247565b33600073ffffffffffffffffffffffffffffffffffffffff168173ffffffffffffffffffffffffffffffffffffffff1603620000ad5760006040517f1e4fbdf7000000000000000000000000000000000000000000000000000000008152600401620000a491906200028a565b60405180910390fd5b620000be816200011960201b60201c565b5080600160006101000a81548173ffffffffffffffffffffffffffffffffffffffff021916908373ffffffffffffffffffffffffffffffffffffffff1602179055504260028190555063470de4df60048190555050620002a7565b60008060009054906101000a900473ffffffffffffffffffffffffffffffffffffffff169050816000806101000a81548173ffffffffffffffffffffffffffffffffffffffff021916908373ffffffffffffffffffffffffffffffffffffffff1602179055508173ffffffffffffffffffffffffffffffffffffffff168173ffffffffffffffffffffffffffffffffffffffff167f8be0079c531659141344cd1fd0a4f28419497f9722a3daafe3b4186f6b6457e060405160405180910390a35050565b600080fd5b600073ffffffffffffffffffffffffffffffffffffffff82169050919050565b60006200020f82620001e2565b9050919050565b620002218162000202565b81146200022d57600080fd5b50565b600081519050620002418162000216565b92915050565b60006020828403121562000260576200025f620001dd565b5b6000620002708482850162000230565b91505092915050565b620002848162000202565b82525050565b6000602082019050620002a1600083018462000279565b92915050565b6137f480620002b76000396000f3fe6080604052600436106101815760003560e01c80638b166d64116100d1578063b6a525cb1161008a578063d6a5593911610064578063d6a55939146105f2578063e9fad8ee1461061d578063eeca2ab614610634578063f2fde38b1461067157610181565b8063b6a525cb14610570578063cb2432a7146105ad578063ce87a1fc146105d657610181565b80638b166d64146104145780638da5cb5b14610451578063918a15cf1461047c57806397aba7f9146104b957806398f7ceab146104f6578063b44665fc1461053357610181565b80636d19c92a1161013e578063715018a611610118578063715018a614610346578063804778fa1461035d578063823ac3731461039a57806388631905146103d757610181565b80636d19c92a1461029c5780636f0173b7146102de5780637094d9041461030957610181565b8063121f55761461018657806313366a50146101af5780634e71d92d146101cb578063512c91df146101e2578063564f4c8b1461021f578063581837df1461025f575b600080fd5b34801561019257600080fd5b506101ad60048036038101906101a8919061257b565b61069a565b005b6101c960048036038101906101c491906125ce565b6108db565b005b3480156101d757600080fd5b506101e0610a0f565b005b3480156101ee57600080fd5b50610209600480360381019061020491906125ce565b610fe8565b6040516102169190612627565b60405180910390f35b34801561022b57600080fd5b506102466004803603810190610241919061266e565b61101b565b60405161025694939291906126b9565b60405180910390f35b34801561026b57600080fd5b50610286600480360381019061028191906126fe565b61108b565b604051610293919061272b565b60405180910390f35b3480156102a857600080fd5b506102c360048036038101906102be9190612746565b6110ca565b6040516102d596959493929190612873565b60405180910390f35b3480156102ea57600080fd5b506102f3611243565b60405161030091906128e2565b60405180910390f35b34801561031557600080fd5b50610330600480360381019061032b91906126fe565b611266565b60405161033d91906128fd565b60405180910390f35b34801561035257600080fd5b5061035b611286565b005b34801561036957600080fd5b50610384600480360381019061037f9190612918565b61129a565b60405161039191906128e2565b60405180910390f35b3480156103a657600080fd5b506103c160048036038101906103bc9190612a8d565b6112bf565b6040516103ce91906128fd565b60405180910390f35b3480156103e357600080fd5b506103fe60048036038101906103f99190612746565b611302565b60405161040b91906128e2565b60405180910390f35b34801561042057600080fd5b5061043b60048036038101906104369190612746565b61131a565b60405161044891906128e2565b60405180910390f35b34801561045d57600080fd5b50610466611332565b604051610473919061272b565b60405180910390f35b34801561048857600080fd5b506104a3600480360381019061049e919061266e565b61135b565b6040516104b09190612627565b60405180910390f35b3480156104c557600080fd5b506104e060048036038101906104db9190612afc565b61138b565b6040516104ed919061272b565b60405180910390f35b34801561050257600080fd5b5061051d600480360381019061051891906125ce565b611448565b60405161052a91906128fd565b60405180910390f35b34801561053f57600080fd5b5061055a600480360381019061055591906126fe565b611521565b60405161056791906128e2565b60405180910390f35b34801561057c57600080fd5b5061059760048036038101906105929190612afc565b611539565b6040516105a4919061272b565b60405180910390f35b3480156105b957600080fd5b506105d460048036038101906105cf91906126fe565b61162f565b005b6105f060048036038101906105eb9190612bf9565b611641565b005b3480156105fe57600080fd5b50610607611a41565b60405161061491906128e2565b60405180910390f35b34801561062957600080fd5b50610632611a47565b005b34801561064057600080fd5b5061065b60048036038101906106569190612746565b611f08565b60405161066891906128e2565b60405180910390f35b34801561067d57600080fd5b5061069860048036038101906106939190612746565b611f20565b005b60006106a4611243565b905081600b60008673ffffffffffffffffffffffffffffffffffffffff1673ffffffffffffffffffffffffffffffffffffffff16815260200190815260200160002060003373ffffffffffffffffffffffffffffffffffffffff1673ffffffffffffffffffffffffffffffffffffffff16815260200190815260200160002060008282546107329190612d1e565b9250508190555081600760008573ffffffffffffffffffffffffffffffffffffffff1673ffffffffffffffffffffffffffffffffffffffff16815260200190815260200160002060008282546107889190612d52565b9250508190555060006008600083815260200190815260200160002054036107f2576005548260086000848152602001908152602001600020546107cc9190612d52565b6107d69190612d52565b600860008381526020019081526020016000208190555061081d565b816008600083815260200190815260200160002060008282546108159190612d52565b925050819055505b816005600082825461082f9190612d52565b92505081905550600454826108449190612d86565b600d60008573ffffffffffffffffffffffffffffffffffffffff1673ffffffffffffffffffffffffffffffffffffffff168152602001908152602001600020819055508273ffffffffffffffffffffffffffffffffffffffff167f4f491f995276ce28befd7703c52a267ef1b9c6e35d688422e9c594aa9bb8728e836040516108cd91906128e2565b60405180910390a250505050565b600454816108e99190612d86565b341461092a576040517f08c379a000000000000000000000000000000000000000000000000000000000815260040161092190612e14565b60405180910390fd5b80600b60003373ffffffffffffffffffffffffffffffffffffffff1673ffffffffffffffffffffffffffffffffffffffff16815260200190815260200160002060008473ffffffffffffffffffffffffffffffffffffffff1673ffffffffffffffffffffffffffffffffffffffff16815260200190815260200160002060008282546109b69190612d52565b925050819055508173ffffffffffffffffffffffffffffffffffffffff167faaa9d50df3d6b8efecfb6e09c3536b0dd0a960bb6bfdad76a85fb6e7811eea9f82604051610a0391906128e2565b60405180910390a25050565b6000610a19611243565b9050600181610a289190612d1e565b600e60003373ffffffffffffffffffffffffffffffffffffffff1673ffffffffffffffffffffffffffffffffffffffff1681526020019081526020016000205410610aa8576040517f08c379a0000000000000000000000000000000000000000000000000000000008152600401610a9f90612ea6565b60405180910390fd5b6000600960003373ffffffffffffffffffffffffffffffffffffffff1673ffffffffffffffffffffffffffffffffffffffff1681526020019081526020016000206040518060c00160405290816000820160009054906101000a900460ff161515151581526020016001820154815260200160028201548152602001600382018054610b3390612ef5565b80601f0160208091040260200160405190810160405280929190818152602001828054610b5f90612ef5565b8015610bac5780601f10610b8157610100808354040283529160200191610bac565b820191906000526020600020905b815481529060010190602001808311610b8f57829003601f168201915b505050505081526020016004820160009054906101000a900473ffffffffffffffffffffffffffffffffffffffff1673ffffffffffffffffffffffffffffffffffffffff1673ffffffffffffffffffffffffffffffffffffffff168152602001600582018054610c1b90612ef5565b80601f0160208091040260200160405190810160405280929190818152602001828054610c4790612ef5565b8015610c945780601f10610c6957610100808354040283529160200191610c94565b820191906000526020600020905b815481529060010190602001808311610c7757829003601f168201915b50505050508152505090508060000151610ce3576040517f08c379a0000000000000000000000000000000000000000000000000000000008152600401610cda90612f72565b60405180910390fd5b6000610ced611fa6565b9050600060086000600186610d029190612d1e565b815260200190815260200160002054600354610d1e9190612d52565b9050600081600354610d309190612fc1565b90506000600760003373ffffffffffffffffffffffffffffffffffffffff1673ffffffffffffffffffffffffffffffffffffffff1681526020019081526020016000205490506000600d60003373ffffffffffffffffffffffffffffffffffffffff1673ffffffffffffffffffffffffffffffffffffffff168152602001908152602001600020549050600069152d02c7e14af6800000600a6002878787610dd89190612d1e565b8a610de39190612d86565b88610dee9190612d52565b610df89190612fc1565b610e029190612d86565b610e0c9190612fc1565b610e169190612d86565b90506000606460288385610e2a9190612d52565b610e349190612d86565b610e3e9190612fc1565b9050808284610e4d9190612d52565b610e579190612d1e565b600d60003373ffffffffffffffffffffffffffffffffffffffff1673ffffffffffffffffffffffffffffffffffffffff168152602001908152602001600020819055503373ffffffffffffffffffffffffffffffffffffffff166108fc829081150290604051600060405180830381858888f19350505050158015610ee0573d6000803e3d6000fd5b50600189610eee9190612d1e565b600e60003373ffffffffffffffffffffffffffffffffffffffff1673ffffffffffffffffffffffffffffffffffffffff168152602001908152602001600020819055506000600760003373ffffffffffffffffffffffffffffffffffffffff1673ffffffffffffffffffffffffffffffffffffffff168152602001908152602001600020819055508360056000828254610f889190612d1e565b925050819055503373ffffffffffffffffffffffffffffffffffffffff167f47cee97cb7acd717b3c0aa1435d004cd5b3c8c57d70dbceb4e4458bbd60e39d482604051610fd591906128e2565b60405180910390a2505050505050505050565b60008282604051602001610ffd92919061305b565b60405160208183030381529060405280519060200120905092915050565b600f6020528060005260406000206000915090508060000154908060010160009054906101000a900473ffffffffffffffffffffffffffffffffffffffff16908060020160009054906101000a900473ffffffffffffffffffffffffffffffffffffffff16908060030154905084565b600c818154811061109b57600080fd5b906000526020600020016000915054906101000a900473ffffffffffffffffffffffffffffffffffffffff1681565b60096020528060005260406000206000915090508060000160009054906101000a900460ff169080600101549080600201549080600301805461110c90612ef5565b80601f016020809104026020016040519081016040528092919081815260200182805461113890612ef5565b80156111855780601f1061115a57610100808354040283529160200191611185565b820191906000526020600020905b81548152906001019060200180831161116857829003601f168201915b5050505050908060040160009054906101000a900473ffffffffffffffffffffffffffffffffffffffff16908060050180546111c090612ef5565b80601f01602080910402602001604051908101604052809291908181526020018280546111ec90612ef5565b80156112395780601f1061120e57610100808354040283529160200191611239565b820191906000526020600020905b81548152906001019060200180831161121c57829003601f168201915b5050505050905086565b600062093a80600254426112579190612d1e565b6112619190612fc1565b905090565b600a6020528060005260406000206000915054906101000a900460ff1681565b61128e612003565b611298600061208a565b565b600b602052816000526040600020602052806000526040600020600091509150505481565b60008173ffffffffffffffffffffffffffffffffffffffff166112e2858561138b565b73ffffffffffffffffffffffffffffffffffffffff161490509392505050565b60076020528060005260406000206000915090505481565b600d6020528060005260406000206000915090505481565b60008060009054906101000a900473ffffffffffffffffffffffffffffffffffffffff16905090565b60008160405160200161136e91906130ff565b604051602081830303815290604052805190602001209050919050565b600060418251146113d1576040517f08c379a00000000000000000000000000000000000000000000000000000000081526004016113c890613171565b60405180910390fd5b60008060006020850151925060408501519150606085015160001a90506001868285856040516000815260200160405260405161141194939291906131ad565b6020604051602081039080840390855afa158015611433573d6000803e3d6000fd5b50505060206040510351935050505092915050565b600080600160009054906101000a900473ffffffffffffffffffffffffffffffffffffffff1673ffffffffffffffffffffffffffffffffffffffff16636352211e846040518263ffffffff1660e01b81526004016114a691906128e2565b602060405180830381865afa1580156114c3573d6000803e3d6000fd5b505050506040513d601f19601f820116820180604052508101906114e79190613207565b90508373ffffffffffffffffffffffffffffffffffffffff168173ffffffffffffffffffffffffffffffffffffffff161491505092915050565b60086020528060005260406000206000915090505481565b600080611546848461214e565b9050600073ffffffffffffffffffffffffffffffffffffffff168173ffffffffffffffffffffffffffffffffffffffff16036115b7576040517f08c379a00000000000000000000000000000000000000000000000000000000081526004016115ae90613280565b60405180910390fd5b3373ffffffffffffffffffffffffffffffffffffffff168173ffffffffffffffffffffffffffffffffffffffff1614611625576040517f08c379a000000000000000000000000000000000000000000000000000000000815260040161161c906132ec565b60405180910390fd5b8091505092915050565b611637612003565b8060048190555050565b6000151561164f8787611448565b151503611691576040517f08c379a000000000000000000000000000000000000000000000000000000000815260040161168890613358565b60405180910390fd5b600061169d8887610fe8565b905060006116aa8261135b565b9050600015156116bb82878b6112bf565b1515036116fd576040517f08c379a00000000000000000000000000000000000000000000000000000000081526004016116f4906133c4565b60405180910390fd5b6040518060c001604052806001151581526020013481526020018881526020018781526020018573ffffffffffffffffffffffffffffffffffffffff16815260200184815250600960008b73ffffffffffffffffffffffffffffffffffffffff1673ffffffffffffffffffffffffffffffffffffffff16815260200190815260200160002060008201518160000160006101000a81548160ff021916908315150217905550602082015181600101556040820151816002015560608201518160030190816117cb9190613590565b5060808201518160040160006101000a81548173ffffffffffffffffffffffffffffffffffffffff021916908373ffffffffffffffffffffffffffffffffffffffff16021790555060a082015181600501908161182891906136bd565b50905050600073ffffffffffffffffffffffffffffffffffffffff168473ffffffffffffffffffffffffffffffffffffffff16146118c457600c849080600181540180825580915050600190039060005260206000200160009091909190916101000a81548173ffffffffffffffffffffffffffffffffffffffff021916908373ffffffffffffffffffffffffffffffffffffffff1602179055505b6000600760008b73ffffffffffffffffffffffffffffffffffffffff1673ffffffffffffffffffffffffffffffffffffffff168152602001908152602001600020819055506000600d60008b73ffffffffffffffffffffffffffffffffffffffff1673ffffffffffffffffffffffffffffffffffffffff168152602001908152602001600020819055506000600e60008b73ffffffffffffffffffffffffffffffffffffffff1673ffffffffffffffffffffffffffffffffffffffff1681526020019081526020016000208190555034600660008282546119a59190612d52565b925050819055506001600a600089815260200190815260200160002060006101000a81548160ff0219169083151502179055506001600360008282546119eb9190612d52565b92505081905550868973ffffffffffffffffffffffffffffffffffffffff167fb831f69f1cebc12b23cd864ce5bfea2669d01956050a0147d71d418074559c2160405160405180910390a3505050505050505050565b60045481565b6000600960003373ffffffffffffffffffffffffffffffffffffffff1673ffffffffffffffffffffffffffffffffffffffff1681526020019081526020016000206040518060c00160405290816000820160009054906101000a900460ff161515151581526020016001820154815260200160028201548152602001600382018054611ad290612ef5565b80601f0160208091040260200160405190810160405280929190818152602001828054611afe90612ef5565b8015611b4b5780601f10611b2057610100808354040283529160200191611b4b565b820191906000526020600020905b815481529060010190602001808311611b2e57829003601f168201915b505050505081526020016004820160009054906101000a900473ffffffffffffffffffffffffffffffffffffffff1673ffffffffffffffffffffffffffffffffffffffff1673ffffffffffffffffffffffffffffffffffffffff168152602001600582018054611bba90612ef5565b80601f0160208091040260200160405190810160405280929190818152602001828054611be690612ef5565b8015611c335780601f10611c0857610100808354040283529160200191611c33565b820191906000526020600020905b815481529060010190602001808311611c1657829003601f168201915b50505050508152505090508060000151611c82576040517f08c379a0000000000000000000000000000000000000000000000000000000008152600401611c7990612f72565b60405180910390fd5b3373ffffffffffffffffffffffffffffffffffffffff166108fc82602001519081150290604051600060405180830381858888f19350505050158015611ccc573d6000803e3d6000fd5b50600760003373ffffffffffffffffffffffffffffffffffffffff1673ffffffffffffffffffffffffffffffffffffffff1681526020019081526020016000205460056000828254611d1e9190612d1e565b92505081905550600760003373ffffffffffffffffffffffffffffffffffffffff1673ffffffffffffffffffffffffffffffffffffffff16815260200190815260200160002060009055600960003373ffffffffffffffffffffffffffffffffffffffff1673ffffffffffffffffffffffffffffffffffffffff168152602001908152602001600020600080820160006101000a81549060ff021916905560018201600090556002820160009055600382016000611ddc9190612436565b6004820160006101000a81549073ffffffffffffffffffffffffffffffffffffffff0219169055600582016000611e139190612476565b5050600e60003373ffffffffffffffffffffffffffffffffffffffff1673ffffffffffffffffffffffffffffffffffffffff16815260200190815260200160002060009055600d60003373ffffffffffffffffffffffffffffffffffffffff1673ffffffffffffffffffffffffffffffffffffffff16815260200190815260200160002060009055600a60008260400151815260200190815260200160002060006101000a81549060ff02191690553373ffffffffffffffffffffffffffffffffffffffff167f7c79e6e24ed041d1072d54523b53956f01b91b835f0490856370594d9d14470e60405160405180910390a250565b600e6020528060005260406000206000915090505481565b611f28612003565b600073ffffffffffffffffffffffffffffffffffffffff168173ffffffffffffffffffffffffffffffffffffffff1603611f9a5760006040517f1e4fbdf7000000000000000000000000000000000000000000000000000000008152600401611f91919061272b565b60405180910390fd5b611fa38161208a565b50565b6000611770611fb3611243565b6026611fbf9190612d86565b6107d0611fcc9190612d52565b1015611ffa57611fda611243565b6026611fe69190612d86565b6107d0611ff39190612d52565b9050612000565b61177090505b90565b61200b61217a565b73ffffffffffffffffffffffffffffffffffffffff16612029611332565b73ffffffffffffffffffffffffffffffffffffffff16146120885761204c61217a565b6040517f118cdaa700000000000000000000000000000000000000000000000000000000815260040161207f919061272b565b60405180910390fd5b565b60008060009054906101000a900473ffffffffffffffffffffffffffffffffffffffff169050816000806101000a81548173ffffffffffffffffffffffffffffffffffffffff021916908373ffffffffffffffffffffffffffffffffffffffff1602179055508173ffffffffffffffffffffffffffffffffffffffff168173ffffffffffffffffffffffffffffffffffffffff167f8be0079c531659141344cd1fd0a4f28419497f9722a3daafe3b4186f6b6457e060405160405180910390a35050565b60008060008061215e8686612182565b92509250925061216e82826121de565b82935050505092915050565b600033905090565b600080600060418451036121c75760008060006020870151925060408701519150606087015160001a90506121b988828585612342565b9550955095505050506121d7565b60006002855160001b9250925092505b9250925092565b600060038111156121f2576121f161378f565b5b8260038111156122055761220461378f565b5b031561233e576001600381111561221f5761221e61378f565b5b8260038111156122325761223161378f565b5b03612269576040517ff645eedf00000000000000000000000000000000000000000000000000000000815260040160405180910390fd5b6002600381111561227d5761227c61378f565b5b8260038111156122905761228f61378f565b5b036122d5578060001c6040517ffce698f70000000000000000000000000000000000000000000000000000000081526004016122cc91906128e2565b60405180910390fd5b6003808111156122e8576122e761378f565b5b8260038111156122fb576122fa61378f565b5b0361233d57806040517fd78bce0c0000000000000000000000000000000000000000000000000000000081526004016123349190612627565b60405180910390fd5b5b5050565b60008060007f7fffffffffffffffffffffffffffffff5d576e7357a4501ddfe92f46681b20a08460001c111561238257600060038592509250925061242c565b6000600188888888604051600081526020016040526040516123a794939291906131ad565b6020604051602081039080840390855afa1580156123c9573d6000803e3d6000fd5b505050602060405103519050600073ffffffffffffffffffffffffffffffffffffffff168173ffffffffffffffffffffffffffffffffffffffff160361241d57600060016000801b9350935093505061242c565b8060008060001b935093509350505b9450945094915050565b50805461244290612ef5565b6000825580601f106124545750612473565b601f01602090049060005260206000209081019061247291906124b6565b5b50565b50805461248290612ef5565b6000825580601f1061249457506124b3565b601f0160209004906000526020600020908101906124b291906124b6565b5b50565b5b808211156124cf5760008160009055506001016124b7565b5090565b6000604051905090565b600080fd5b600080fd5b600073ffffffffffffffffffffffffffffffffffffffff82169050919050565b6000612512826124e7565b9050919050565b61252281612507565b811461252d57600080fd5b50565b60008135905061253f81612519565b92915050565b6000819050919050565b61255881612545565b811461256357600080fd5b50565b6000813590506125758161254f565b92915050565b600080600060608486031215612594576125936124dd565b5b60006125a286828701612530565b93505060206125b386828701612530565b92505060406125c486828701612566565b9150509250925092565b600080604083850312156125e5576125e46124dd565b5b60006125f385828601612530565b925050602061260485828601612566565b9150509250929050565b6000819050919050565b6126218161260e565b82525050565b600060208201905061263c6000830184612618565b92915050565b61264b8161260e565b811461265657600080fd5b50565b60008135905061266881612642565b92915050565b600060208284031215612684576126836124dd565b5b600061269284828501612659565b91505092915050565b6126a481612545565b82525050565b6126b381612507565b82525050565b60006080820190506126ce600083018761269b565b6126db60208301866126aa565b6126e860408301856126aa565b6126f5606083018461269b565b95945050505050565b600060208284031215612714576127136124dd565b5b600061272284828501612566565b91505092915050565b600060208201905061274060008301846126aa565b92915050565b60006020828403121561275c5761275b6124dd565b5b600061276a84828501612530565b91505092915050565b60008115159050919050565b61278881612773565b82525050565b600081519050919050565b600082825260208201905092915050565b60005b838110156127c85780820151818401526020810190506127ad565b60008484015250505050565b6000601f19601f8301169050919050565b60006127f08261278e565b6127fa8185612799565b935061280a8185602086016127aa565b612813816127d4565b840191505092915050565b600081519050919050565b600082825260208201905092915050565b60006128458261281e565b61284f8185612829565b935061285f8185602086016127aa565b612868816127d4565b840191505092915050565b600060c082019050612888600083018961277f565b612895602083018861269b565b6128a2604083018761269b565b81810360608301526128b481866127e5565b90506128c360808301856126aa565b81810360a08301526128d5818461283a565b9050979650505050505050565b60006020820190506128f7600083018461269b565b92915050565b6000602082019050612912600083018461277f565b92915050565b6000806040838503121561292f5761292e6124dd565b5b600061293d85828601612530565b925050602061294e85828601612530565b9150509250929050565b600080fd5b600080fd5b7f4e487b7100000000000000000000000000000000000000000000000000000000600052604160045260246000fd5b61299a826127d4565b810181811067ffffffffffffffff821117156129b9576129b8612962565b5b80604052505050565b60006129cc6124d3565b90506129d88282612991565b919050565b600067ffffffffffffffff8211156129f8576129f7612962565b5b612a01826127d4565b9050602081019050919050565b82818337600083830152505050565b6000612a30612a2b846129dd565b6129c2565b905082815260208101848484011115612a4c57612a4b61295d565b5b612a57848285612a0e565b509392505050565b600082601f830112612a7457612a73612958565b5b8135612a84848260208601612a1d565b91505092915050565b600080600060608486031215612aa657612aa56124dd565b5b6000612ab486828701612659565b935050602084013567ffffffffffffffff811115612ad557612ad46124e2565b5b612ae186828701612a5f565b9250506040612af286828701612530565b9150509250925092565b60008060408385031215612b1357612b126124dd565b5b6000612b2185828601612659565b925050602083013567ffffffffffffffff811115612b4257612b416124e2565b5b612b4e85828601612a5f565b9150509250929050565b600067ffffffffffffffff821115612b7357612b72612962565b5b612b7c826127d4565b9050602081019050919050565b6000612b9c612b9784612b58565b6129c2565b905082815260208101848484011115612bb857612bb761295d565b5b612bc3848285612a0e565b509392505050565b600082601f830112612be057612bdf612958565b5b8135612bf0848260208601612b89565b91505092915050565b600080600080600080600060e0888a031215612c1857612c176124dd565b5b6000612c268a828b01612530565b9750506020612c378a828b01612530565b9650506040612c488a828b01612566565b955050606088013567ffffffffffffffff811115612c6957612c686124e2565b5b612c758a828b01612bcb565b945050608088013567ffffffffffffffff811115612c9657612c956124e2565b5b612ca28a828b01612a5f565b93505060a0612cb38a828b01612530565b92505060c088013567ffffffffffffffff811115612cd457612cd36124e2565b5b612ce08a828b01612a5f565b91505092959891949750929550565b7f4e487b7100000000000000000000000000000000000000000000000000000000600052601160045260246000fd5b6000612d2982612545565b9150612d3483612545565b9250828203905081811115612d4c57612d4b612cef565b5b92915050565b6000612d5d82612545565b9150612d6883612545565b9250828201905080821115612d8057612d7f612cef565b5b92915050565b6000612d9182612545565b9150612d9c83612545565b9250828202612daa81612545565b91508282048414831517612dc157612dc0612cef565b5b5092915050565b7f496e73756666696369656e7420616d6f756e7400000000000000000000000000600082015250565b6000612dfe601383612799565b9150612e0982612dc8565b602082019050919050565b60006020820190508181036000830152612e2d81612df1565b9050919050565b7f506c65617365207761697420756e74696c20746865206e657874207465726d2060008201527f746f20636c61696d207468652072657761726400000000000000000000000000602082015250565b6000612e90603383612799565b9150612e9b82612e34565b604082019050919050565b60006020820190508181036000830152612ebf81612e83565b9050919050565b7f4e487b7100000000000000000000000000000000000000000000000000000000600052602260045260246000fd5b60006002820490506001821680612f0d57607f821691505b602082108103612f2057612f1f612ec6565b5b50919050565b7f4361636865206e6f6465206e6f74207265676973746572656400000000000000600082015250565b6000612f5c601983612799565b9150612f6782612f26565b602082019050919050565b60006020820190508181036000830152612f8b81612f4f565b9050919050565b7f4e487b7100000000000000000000000000000000000000000000000000000000600052601260045260246000fd5b6000612fcc82612545565b9150612fd783612545565b925082612fe757612fe6612f92565b5b828204905092915050565b60008160601b9050919050565b600061300a82612ff2565b9050919050565b600061301c82612fff565b9050919050565b61303461302f82612507565b613011565b82525050565b6000819050919050565b61305561305082612545565b61303a565b82525050565b60006130678285613023565b6014820191506130778284613044565b6020820191508190509392505050565b600081905092915050565b7f19457468657265756d205369676e6564204d6573736167653a0a333200000000600082015250565b60006130c8601c83613087565b91506130d382613092565b601c82019050919050565b6000819050919050565b6130f96130f48261260e565b6130de565b82525050565b600061310a826130bb565b915061311682846130e8565b60208201915081905092915050565b7f696e76616c6964207369676e6174757265206c656e6774680000000000000000600082015250565b600061315b601883612799565b915061316682613125565b602082019050919050565b6000602082019050818103600083015261318a8161314e565b9050919050565b600060ff82169050919050565b6131a781613191565b82525050565b60006080820190506131c26000830187612618565b6131cf602083018661319e565b6131dc6040830185612618565b6131e96060830184612618565b95945050505050565b60008151905061320181612519565b92915050565b60006020828403121561321d5761321c6124dd565b5b600061322b848285016131f2565b91505092915050565b7f45434453413a20696e76616c6964207369676e61747572650000000000000000600082015250565b600061326a601883612799565b915061327582613234565b602082019050919050565b600060208201905081810360008301526132998161325d565b9050919050565b7f4d7946756e6374696f6e3a20696e76616c6964207369676e6174757265000000600082015250565b60006132d6601d83612799565b91506132e1826132a0565b602082019050919050565b60006020820190508181036000830152613305816132c9565b9050919050565b7f4e6f742074686520746f6b656e20686f6c646572000000000000000000000000600082015250565b6000613342601483612799565b915061334d8261330c565b602082019050919050565b6000602082019050818103600083015261337181613335565b9050919050565b7f766572696679207369676e6174757265206661696c6564000000000000000000600082015250565b60006133ae601783612799565b91506133b982613378565b602082019050919050565b600060208201905081810360008301526133dd816133a1565b9050919050565b60008190508160005260206000209050919050565b60006020601f8301049050919050565b600082821b905092915050565b6000600883026134467fffffffffffffffffffffffffffffffffffffffffffffffffffffffffffffffff82613409565b6134508683613409565b95508019841693508086168417925050509392505050565b6000819050919050565b600061348d61348861348384612545565b613468565b612545565b9050919050565b6000819050919050565b6134a783613472565b6134bb6134b382613494565b848454613416565b825550505050565b600090565b6134d06134c3565b6134db81848461349e565b505050565b5b818110156134ff576134f46000826134c8565b6001810190506134e1565b5050565b601f82111561354457613515816133e4565b61351e846133f9565b8101602085101561352d578190505b613541613539856133f9565b8301826134e0565b50505b505050565b600082821c905092915050565b600061356760001984600802613549565b1980831691505092915050565b60006135808383613556565b9150826002028217905092915050565b6135998261278e565b67ffffffffffffffff8111156135b2576135b1612962565b5b6135bc8254612ef5565b6135c7828285613503565b600060209050601f8311600181146135fa57600084156135e8578287015190505b6135f28582613574565b86555061365a565b601f198416613608866133e4565b60005b828110156136305784890151825560018201915060208501945060208101905061360b565b8683101561364d5784890151613649601f891682613556565b8355505b6001600288020188555050505b505050505050565b60008190508160005260206000209050919050565b601f8211156136b85761368981613662565b613692846133f9565b810160208510156136a1578190505b6136b56136ad856133f9565b8301826134e0565b50505b505050565b6136c68261281e565b67ffffffffffffffff8111156136df576136de612962565b5b6136e98254612ef5565b6136f4828285613677565b600060209050601f8311600181146137275760008415613715578287015190505b61371f8582613574565b865550613787565b601f19841661373586613662565b60005b8281101561375d57848901518255600182019150602085019450602081019050613738565b8683101561377a5784890151613776601f891682613556565b8355505b6001600288020188555050505b505050505050565b7f4e487b7100000000000000000000000000000000000000000000000000000000600052602160045260246000fdfea26469706673582212208298fc59bb6f2489b7c0e48afc384d9f3323b596f56a3c6d0ac70b3ce12fab9b64736f6c63430008180033",
  "linkReferences": {},
  "deployedLinkReferences": {}
}