{
  "_format": "hh-sol-artifact-1",
  "contractName": "CacheToken",
  "sourceName": "contracts/CacheToken.sol",
  "abi": [
    {
      "inputs": [
        {
          "internalType": "string",
          "name": "name_",
          "type": "string"
        },
        {
          "internalType": "string",
          "name": "symbol_",
          "type": "string"
        }
      ],
      "stateMutability": "nonpayable",
      "type": "constructor"
    },
    {
      "inputs": [
        {
          "internalType": "address",
          "name": "sender",
          "type": "address"
        },
        {
          "internalType": "uint256",
          "name": "tokenId",
          "type": "uint256"
        },
        {
          "internalType": "address",
          "name": "owner",
          "type": "address"
        }
      ],
      "name": "ERC721IncorrectOwner",
      "type": "error"
    },
    {
      "inputs": [
        {
          "internalType": "address",
          "name": "operator",
          "type": "address"
        },
        {
          "internalType": "uint256",
          "name": "tokenId",
          "type": "uint256"
        }
      ],
      "name": "ERC721InsufficientApproval",
      "type": "error"
    },
    {
      "inputs": [
        {
          "internalType": "address",
          "name": "approver",
          "type": "address"
        }
      ],
      "name": "ERC721InvalidApprover",
      "type": "error"
    },
    {
      "inputs": [
        {
          "internalType": "address",
          "name": "operator",
          "type": "address"
        }
      ],
      "name": "ERC721InvalidOperator",
      "type": "error"
    },
    {
      "inputs": [
        {
          "internalType": "address",
          "name": "owner",
          "type": "address"
        }
      ],
      "name": "ERC721InvalidOwner",
      "type": "error"
    },
    {
      "inputs": [
        {
          "internalType": "address",
          "name": "receiver",
          "type": "address"
        }
      ],
      "name": "ERC721InvalidReceiver",
      "type": "error"
    },
    {
      "inputs": [
        {
          "internalType": "address",
          "name": "sender",
          "type": "address"
        }
      ],
      "name": "ERC721InvalidSender",
      "type": "error"
    },
    {
      "inputs": [
        {
          "internalType": "uint256",
          "name": "tokenId",
          "type": "uint256"
        }
      ],
      "name": "ERC721NonexistentToken",
      "type": "error"
    },
    {
      "anonymous": false,
      "inputs": [
        {
          "indexed": true,
          "internalType": "address",
          "name": "owner",
          "type": "address"
        },
        {
          "indexed": true,
          "internalType": "address",
          "name": "approved",
          "type": "address"
        },
        {
          "indexed": true,
          "internalType": "uint256",
          "name": "tokenId",
          "type": "uint256"
        }
      ],
      "name": "Approval",
      "type": "event"
    },
    {
      "anonymous": false,
      "inputs": [
        {
          "indexed": true,
          "internalType": "address",
          "name": "owner",
          "type": "address"
        },
        {
          "indexed": true,
          "internalType": "address",
          "name": "operator",
          "type": "address"
        },
        {
          "indexed": false,
          "internalType": "bool",
          "name": "approved",
          "type": "bool"
        }
      ],
      "name": "ApprovalForAll",
      "type": "event"
    },
    {
      "anonymous": false,
      "inputs": [
        {
          "indexed": true,
          "internalType": "address",
          "name": "owner",
          "type": "address"
        },
        {
          "indexed": true,
          "internalType": "uint256",
          "name": "tokenId",
          "type": "uint256"
        }
      ],
      "name": "MintToken",
      "type": "event"
    },
    {
      "anonymous": false,
      "inputs": [
        {
          "indexed": true,
          "internalType": "address",
          "name": "from",
          "type": "address"
        },
        {
          "indexed": true,
          "internalType": "address",
          "name": "to",
          "type": "address"
        },
        {
          "indexed": true,
          "internalType": "uint256",
          "name": "tokenId",
          "type": "uint256"
        }
      ],
      "name": "Transfer",
      "type": "event"
    },
    {
      "inputs": [
        {
          "internalType": "address",
          "name": "to",
          "type": "address"
        },
        {
          "internalType": "uint256",
          "name": "tokenId",
          "type": "uint256"
        }
      ],
      "name": "approve",
      "outputs": [],
      "stateMutability": "nonpayable",
      "type": "function"
    },
    {
      "inputs": [
        {
          "internalType": "address",
          "name": "owner",
          "type": "address"
        }
      ],
      "name": "balanceOf",
      "outputs": [
        {
          "internalType": "uint256",
          "name": "",
          "type": "uint256"
        }
      ],
      "stateMutability": "view",
      "type": "function"
    },
    {
      "inputs": [
        {
          "internalType": "uint256",
          "name": "tokenId",
          "type": "uint256"
        }
      ],
      "name": "getApproved",
      "outputs": [
        {
          "internalType": "address",
          "name": "",
          "type": "address"
        }
      ],
      "stateMutability": "view",
      "type": "function"
    },
    {
      "inputs": [
        {
          "internalType": "address",
          "name": "owner",
          "type": "address"
        },
        {
          "internalType": "address",
          "name": "operator",
          "type": "address"
        }
      ],
      "name": "isApprovedForAll",
      "outputs": [
        {
          "internalType": "bool",
          "name": "",
          "type": "bool"
        }
      ],
      "stateMutability": "view",
      "type": "function"
    },
    {
      "inputs": [
        {
          "internalType": "address",
          "name": "to",
          "type": "address"
        }
      ],
      "name": "mintToken",
      "outputs": [],
      "stateMutability": "payable",
      "type": "function"
    },
    {
      "inputs": [],
      "name": "name",
      "outputs": [
        {
          "internalType": "string",
          "name": "",
          "type": "string"
        }
      ],
      "stateMutability": "view",
      "type": "function"
    },
    {
      "inputs": [
        {
          "internalType": "uint256",
          "name": "tokenId",
          "type": "uint256"
        }
      ],
      "name": "ownerOf",
      "outputs": [
        {
          "internalType": "address",
          "name": "",
          "type": "address"
        }
      ],
      "stateMutability": "view",
      "type": "function"
    },
    {
      "inputs": [
        {
          "internalType": "uint256",
          "name": "",
          "type": "uint256"
        }
      ],
      "name": "releaseTime",
      "outputs": [
        {
          "internalType": "uint256",
          "name": "",
          "type": "uint256"
        }
      ],
      "stateMutability": "view",
      "type": "function"
    },
    {
      "inputs": [
        {
          "internalType": "address",
          "name": "from",
          "type": "address"
        },
        {
          "internalType": "address",
          "name": "to",
          "type": "address"
        },
        {
          "internalType": "uint256",
          "name": "tokenId",
          "type": "uint256"
        }
      ],
      "name": "safeTransferFrom",
      "outputs": [],
      "stateMutability": "nonpayable",
      "type": "function"
    },
    {
      "inputs": [
        {
          "internalType": "address",
          "name": "from",
          "type": "address"
        },
        {
          "internalType": "address",
          "name": "to",
          "type": "address"
        },
        {
          "internalType": "uint256",
          "name": "tokenId",
          "type": "uint256"
        },
        {
          "internalType": "bytes",
          "name": "data",
          "type": "bytes"
        }
      ],
      "name": "safeTransferFrom",
      "outputs": [],
      "stateMutability": "nonpayable",
      "type": "function"
    },
    {
      "inputs": [
        {
          "internalType": "address",
          "name": "operator",
          "type": "address"
        },
        {
          "internalType": "bool",
          "name": "approved",
          "type": "bool"
        }
      ],
      "name": "setApprovalForAll",
      "outputs": [],
      "stateMutability": "nonpayable",
      "type": "function"
    },
    {
      "inputs": [
        {
          "internalType": "bytes4",
          "name": "interfaceId",
          "type": "bytes4"
        }
      ],
      "name": "supportsInterface",
      "outputs": [
        {
          "internalType": "bool",
          "name": "",
          "type": "bool"
        }
      ],
      "stateMutability": "view",
      "type": "function"
    },
    {
      "inputs": [],
      "name": "symbol",
      "outputs": [
        {
          "internalType": "string",
          "name": "",
          "type": "string"
        }
      ],
      "stateMutability": "view",
      "type": "function"
    },
    {
      "inputs": [
        {
          "internalType": "uint256",
          "name": "tokenId",
          "type": "uint256"
        }
      ],
      "name": "tokenURI",
      "outputs": [
        {
          "internalType": "string",
          "name": "",
          "type": "string"
        }
      ],
      "stateMutability": "view",
      "type": "function"
    },
    {
      "inputs": [
        {
          "internalType": "address",
          "name": "from",
          "type": "address"
        },
        {
          "internalType": "address",
          "name": "to",
          "type": "address"
        },
        {
          "internalType": "uint256",
          "name": "tokenId",
          "type": "uint256"
        }
      ],
      "name": "transferFrom",
      "outputs": [],
      "stateMutability": "nonpayable",
      "type": "function"
    },
    {
      "inputs": [],
      "name": "withdraw",
      "outputs": [],
      "stateMutability": "nonpayable",
      "type": "function"
    }
  ],
  "bytecode": "0x60806040523480156200001157600080fd5b50604051620028ca380380620028ca83398181016040528101906200003791906200023b565b818181600090816200004a91906200050b565b5080600190816200005c91906200050b565b50505033600660006101000a81548173ffffffffffffffffffffffffffffffffffffffff021916908373ffffffffffffffffffffffffffffffffffffffff1602179055505050620005f2565b6000604051905090565b600080fd5b600080fd5b600080fd5b600080fd5b6000601f19601f8301169050919050565b7f4e487b7100000000000000000000000000000000000000000000000000000000600052604160045260246000fd5b6200011182620000c6565b810181811067ffffffffffffffff82111715620001335762000132620000d7565b5b80604052505050565b600062000148620000a8565b905062000156828262000106565b919050565b600067ffffffffffffffff821115620001795762000178620000d7565b5b6200018482620000c6565b9050602081019050919050565b60005b83811015620001b157808201518184015260208101905062000194565b60008484015250505050565b6000620001d4620001ce846200015b565b6200013c565b905082815260208101848484011115620001f357620001f2620000c1565b5b6200020084828562000191565b509392505050565b600082601f83011262000220576200021f620000bc565b5b815162000232848260208601620001bd565b91505092915050565b60008060408385031215620002555762000254620000b2565b5b600083015167ffffffffffffffff811115620002765762000275620000b7565b5b620002848582860162000208565b925050602083015167ffffffffffffffff811115620002a857620002a7620000b7565b5b620002b68582860162000208565b9150509250929050565b600081519050919050565b7f4e487b7100000000000000000000000000000000000000000000000000000000600052602260045260246000fd5b600060028204905060018216806200031357607f821691505b602082108103620003295762000328620002cb565b5b50919050565b60008190508160005260206000209050919050565b60006020601f8301049050919050565b600082821b905092915050565b600060088302620003937fffffffffffffffffffffffffffffffffffffffffffffffffffffffffffffffff8262000354565b6200039f868362000354565b95508019841693508086168417925050509392505050565b6000819050919050565b6000819050919050565b6000620003ec620003e6620003e084620003b7565b620003c1565b620003b7565b9050919050565b6000819050919050565b6200040883620003cb565b620004206200041782620003f3565b84845462000361565b825550505050565b600090565b6200043762000428565b62000444818484620003fd565b505050565b5b818110156200046c57620004606000826200042d565b6001810190506200044a565b5050565b601f821115620004bb5762000485816200032f565b620004908462000344565b81016020851015620004a0578190505b620004b8620004af8562000344565b83018262000449565b50505b505050565b600082821c905092915050565b6000620004e060001984600802620004c0565b1980831691505092915050565b6000620004fb8383620004cd565b9150826002028217905092915050565b6200051682620002c0565b67ffffffffffffffff811115620005325762000531620000d7565b5b6200053e8254620002fa565b6200054b82828562000470565b600060209050601f8311600181146200058357600084156200056e578287015190505b6200057a8582620004ed565b865550620005ea565b601f19841662000593866200032f565b60005b82811015620005bd5784890151825560018201915060208501945060208101905062000596565b86831015620005dd5784890151620005d9601f891682620004cd565b8355505b6001600288020188555050505b505050505050565b6122c880620006026000396000f3fe6080604052600436106100f35760003560e01c806342842e0e1161008a578063a22cb46511610059578063a22cb4651461032d578063b88d4fde14610356578063c87b56dd1461037f578063e985e9c5146103bc576100f3565b806342842e0e1461025f5780636352211e1461028857806370a08231146102c557806395d89b4114610302576100f3565b8063095ea7b3116100c6578063095ea7b3146101b957806309c4bb2b146101e257806323b872dd1461021f5780633ccfd60b14610248576100f3565b806301173a74146100f857806301ffc9a71461011457806306fdde0314610151578063081812fc1461017c575b600080fd5b610112600480360381019061010d9190611971565b6103f9565b005b34801561012057600080fd5b5061013b600480360381019061013691906119f6565b6105b3565b6040516101489190611a3e565b60405180910390f35b34801561015d57600080fd5b50610166610695565b6040516101739190611ae9565b60405180910390f35b34801561018857600080fd5b506101a3600480360381019061019e9190611b41565b610727565b6040516101b09190611b7d565b60405180910390f35b3480156101c557600080fd5b506101e060048036038101906101db9190611b98565b610743565b005b3480156101ee57600080fd5b5061020960048036038101906102049190611b41565b610759565b6040516102169190611be7565b60405180910390f35b34801561022b57600080fd5b5061024660048036038101906102419190611c02565b610771565b005b34801561025457600080fd5b5061025d61087c565b005b34801561026b57600080fd5b5061028660048036038101906102819190611c02565b610977565b005b34801561029457600080fd5b506102af60048036038101906102aa9190611b41565b610997565b6040516102bc9190611b7d565b60405180910390f35b3480156102d157600080fd5b506102ec60048036038101906102e79190611971565b6109a9565b6040516102f99190611be7565b60405180910390f35b34801561030e57600080fd5b50610317610a63565b6040516103249190611ae9565b60405180910390f35b34801561033957600080fd5b50610354600480360381019061034f9190611c81565b610af5565b005b34801561036257600080fd5b5061037d60048036038101906103789190611df6565b610b0b565b005b34801561038b57600080fd5b506103a660048036038101906103a19190611b41565b610b31565b6040516103b39190611ae9565b60405180910390f35b3480156103c857600080fd5b506103e360048036038101906103de9190611e79565b610b9a565b6040516103f09190611a3e565b60405180910390f35b68056bc75e2d63100000341015610445576040517f08c379a000000000000000000000000000000000000000000000000000000000815260040161043c90611f05565b60405180910390fd5b600073ffffffffffffffffffffffffffffffffffffffff168173ffffffffffffffffffffffffffffffffffffffff16036104b75760006040517f64a0ae920000000000000000000000000000000000000000000000000000000081526004016104ae9190611b7d565b60405180910390fd5b60006104c1610c2e565b905060006104d183836000610c5f565b9050600073ffffffffffffffffffffffffffffffffffffffff168173ffffffffffffffffffffffffffffffffffffffff16146105455760006040517f73c6ac6e00000000000000000000000000000000000000000000000000000000815260040161053c9190611b7d565b60405180910390fd5b61012c426105539190611f54565b6007600084815260200190815260200160002081905550818373ffffffffffffffffffffffffffffffffffffffff167fdcdea898caf5576419f89caf69301592a4758349a0bd62300b58849213420a7260405160405180910390a3505050565b60007f80ac58cd000000000000000000000000000000000000000000000000000000007bffffffffffffffffffffffffffffffffffffffffffffffffffffffff1916827bffffffffffffffffffffffffffffffffffffffffffffffffffffffff1916148061067e57507f5b5e139f000000000000000000000000000000000000000000000000000000007bffffffffffffffffffffffffffffffffffffffffffffffffffffffff1916827bffffffffffffffffffffffffffffffffffffffffffffffffffffffff1916145b8061068e575061068d82610e79565b5b9050919050565b6060600080546106a490611fb7565b80601f01602080910402602001604051908101604052809291908181526020018280546106d090611fb7565b801561071d5780601f106106f25761010080835404028352916020019161071d565b820191906000526020600020905b81548152906001019060200180831161070057829003601f168201915b5050505050905090565b600061073282610ee3565b5061073c82610f6b565b9050919050565b6107558282610750610fa8565b610fb0565b5050565b60076020528060005260406000206000915090505481565b61077a81610fc2565b600073ffffffffffffffffffffffffffffffffffffffff168273ffffffffffffffffffffffffffffffffffffffff16036107ec5760006040517f64a0ae920000000000000000000000000000000000000000000000000000000081526004016107e39190611b7d565b60405180910390fd5b600061080083836107fb610fa8565b610c5f565b90508373ffffffffffffffffffffffffffffffffffffffff168173ffffffffffffffffffffffffffffffffffffffff1614610876578382826040517f64283d7b00000000000000000000000000000000000000000000000000000000815260040161086d93929190611fe8565b60405180910390fd5b50505050565b3373ffffffffffffffffffffffffffffffffffffffff16600660009054906101000a900473ffffffffffffffffffffffffffffffffffffffff1673ffffffffffffffffffffffffffffffffffffffff161461090c576040517f08c379a00000000000000000000000000000000000000000000000000000000081526004016109039061206b565b60405180910390fd5b600660009054906101000a900473ffffffffffffffffffffffffffffffffffffffff1673ffffffffffffffffffffffffffffffffffffffff166108fc479081150290604051600060405180830381858888f19350505050158015610974573d6000803e3d6000fd5b50565b61099283838360405180602001604052806000815250610b0b565b505050565b60006109a282610ee3565b9050919050565b60008073ffffffffffffffffffffffffffffffffffffffff168273ffffffffffffffffffffffffffffffffffffffff1603610a1c5760006040517f89c62b64000000000000000000000000000000000000000000000000000000008152600401610a139190611b7d565b60405180910390fd5b600360008373ffffffffffffffffffffffffffffffffffffffff1673ffffffffffffffffffffffffffffffffffffffff168152602001908152602001600020549050919050565b606060018054610a7290611fb7565b80601f0160208091040260200160405190810160405280929190818152602001828054610a9e90611fb7565b8015610aeb5780601f10610ac057610100808354040283529160200191610aeb565b820191906000526020600020905b815481529060010190602001808311610ace57829003601f168201915b5050505050905090565b610b07610b00610fa8565b838361101a565b5050565b610b1482610fc2565b610b1f848484610771565b610b2b84848484611189565b50505050565b6060610b3c82610ee3565b506000610b47611340565b90506000815111610b675760405180602001604052806000815250610b92565b80610b7184611357565b604051602001610b829291906120c7565b6040516020818303038152906040525b915050919050565b6000600560008473ffffffffffffffffffffffffffffffffffffffff1673ffffffffffffffffffffffffffffffffffffffff16815260200190815260200160002060008373ffffffffffffffffffffffffffffffffffffffff1673ffffffffffffffffffffffffffffffffffffffff16815260200190815260200160002060009054906101000a900460ff16905092915050565b600042604051602001610c419190611be7565b6040516020818303038152906040528051906020012060001c905090565b600080610c6b84611425565b9050600073ffffffffffffffffffffffffffffffffffffffff168373ffffffffffffffffffffffffffffffffffffffff1614610cad57610cac818486611462565b5b600073ffffffffffffffffffffffffffffffffffffffff168173ffffffffffffffffffffffffffffffffffffffff1614610d3e57610cef600085600080611526565b6001600360008373ffffffffffffffffffffffffffffffffffffffff1673ffffffffffffffffffffffffffffffffffffffff168152602001908152602001600020600082825403925050819055505b600073ffffffffffffffffffffffffffffffffffffffff168573ffffffffffffffffffffffffffffffffffffffff1614610dc1576001600360008773ffffffffffffffffffffffffffffffffffffffff1673ffffffffffffffffffffffffffffffffffffffff168152602001908152602001600020600082825401925050819055505b846002600086815260200190815260200160002060006101000a81548173ffffffffffffffffffffffffffffffffffffffff021916908373ffffffffffffffffffffffffffffffffffffffff160217905550838573ffffffffffffffffffffffffffffffffffffffff168273ffffffffffffffffffffffffffffffffffffffff167fddf252ad1be2c89b69c2b068fc378daa952ba7f163c4a11628f55a4df523b3ef60405160405180910390a4809150509392505050565b60007f01ffc9a7000000000000000000000000000000000000000000000000000000007bffffffffffffffffffffffffffffffffffffffffffffffffffffffff1916827bffffffffffffffffffffffffffffffffffffffffffffffffffffffff1916149050919050565b600080610eef83611425565b9050600073ffffffffffffffffffffffffffffffffffffffff168173ffffffffffffffffffffffffffffffffffffffff1603610f6257826040517f7e273289000000000000000000000000000000000000000000000000000000008152600401610f599190611be7565b60405180910390fd5b80915050919050565b60006004600083815260200190815260200160002060009054906101000a900473ffffffffffffffffffffffffffffffffffffffff169050919050565b600033905090565b610fbd8383836001611526565b505050565b60076000828152602001908152602001600020544211611017576040517f08c379a000000000000000000000000000000000000000000000000000000000815260040161100e90612137565b60405180910390fd5b50565b600073ffffffffffffffffffffffffffffffffffffffff168273ffffffffffffffffffffffffffffffffffffffff160361108b57816040517f5b08ba180000000000000000000000000000000000000000000000000000000081526004016110829190611b7d565b60405180910390fd5b80600560008573ffffffffffffffffffffffffffffffffffffffff1673ffffffffffffffffffffffffffffffffffffffff16815260200190815260200160002060008473ffffffffffffffffffffffffffffffffffffffff1673ffffffffffffffffffffffffffffffffffffffff16815260200190815260200160002060006101000a81548160ff0219169083151502179055508173ffffffffffffffffffffffffffffffffffffffff168373ffffffffffffffffffffffffffffffffffffffff167f17307eab39ab6107e8899845ad3d59bd9653f200f220920489ca2b5937696c318360405161117c9190611a3e565b60405180910390a3505050565b60008373ffffffffffffffffffffffffffffffffffffffff163b111561133a578273ffffffffffffffffffffffffffffffffffffffff1663150b7a026111cd610fa8565b8685856040518563ffffffff1660e01b81526004016111ef94939291906121ac565b6020604051808303816000875af192505050801561122b57506040513d601f19601f82011682018060405250810190611228919061220d565b60015b6112af573d806000811461125b576040519150601f19603f3d011682016040523d82523d6000602084013e611260565b606091505b5060008151036112a757836040517f64a0ae9200000000000000000000000000000000000000000000000000000000815260040161129e9190611b7d565b60405180910390fd5b805181602001fd5b63150b7a0260e01b7bffffffffffffffffffffffffffffffffffffffffffffffffffffffff1916817bffffffffffffffffffffffffffffffffffffffffffffffffffffffff19161461133857836040517f64a0ae9200000000000000000000000000000000000000000000000000000000815260040161132f9190611b7d565b60405180910390fd5b505b50505050565b606060405180602001604052806000815250905090565b606060006001611366846116eb565b01905060008167ffffffffffffffff81111561138557611384611ccb565b5b6040519080825280601f01601f1916602001820160405280156113b75781602001600182028036833780820191505090505b509050600082602001820190505b60011561141a578080600190039150507f3031323334353637383961626364656600000000000000000000000000000000600a86061a8153600a858161140e5761140d61223a565b5b049450600085036113c5575b819350505050919050565b60006002600083815260200190815260200160002060009054906101000a900473ffffffffffffffffffffffffffffffffffffffff169050919050565b61146d83838361183e565b61152157600073ffffffffffffffffffffffffffffffffffffffff168373ffffffffffffffffffffffffffffffffffffffff16036114e257806040517f7e2732890000000000000000000000000000000000000000000000000000000081526004016114d99190611be7565b60405180910390fd5b81816040517f177e802f000000000000000000000000000000000000000000000000000000008152600401611518929190612269565b60405180910390fd5b505050565b808061155f5750600073ffffffffffffffffffffffffffffffffffffffff168273ffffffffffffffffffffffffffffffffffffffff1614155b1561169357600061156f84610ee3565b9050600073ffffffffffffffffffffffffffffffffffffffff168373ffffffffffffffffffffffffffffffffffffffff16141580156115da57508273ffffffffffffffffffffffffffffffffffffffff168173ffffffffffffffffffffffffffffffffffffffff1614155b80156115ed57506115eb8184610b9a565b155b1561162f57826040517fa9fbf51f0000000000000000000000000000000000000000000000000000000081526004016116269190611b7d565b60405180910390fd5b811561169157838573ffffffffffffffffffffffffffffffffffffffff168273ffffffffffffffffffffffffffffffffffffffff167f8c5be1e5ebec7d5bd14f71427d1e84f3dd0314c0f7b2291e5b200ac8c7c3b92560405160405180910390a45b505b836004600085815260200190815260200160002060006101000a81548173ffffffffffffffffffffffffffffffffffffffff021916908373ffffffffffffffffffffffffffffffffffffffff16021790555050505050565b600080600090507a184f03e93ff9f4daa797ed6e38ed64bf6a1f0100000000000000008310611749577a184f03e93ff9f4daa797ed6e38ed64bf6a1f010000000000000000838161173f5761173e61223a565b5b0492506040810190505b6d04ee2d6d415b85acef81000000008310611786576d04ee2d6d415b85acef8100000000838161177c5761177b61223a565b5b0492506020810190505b662386f26fc1000083106117b557662386f26fc1000083816117ab576117aa61223a565b5b0492506010810190505b6305f5e10083106117de576305f5e10083816117d4576117d361223a565b5b0492506008810190505b61271083106118035761271083816117f9576117f861223a565b5b0492506004810190505b60648310611826576064838161181c5761181b61223a565b5b0492506002810190505b600a8310611835576001810190505b80915050919050565b60008073ffffffffffffffffffffffffffffffffffffffff168373ffffffffffffffffffffffffffffffffffffffff16141580156118f657508273ffffffffffffffffffffffffffffffffffffffff168473ffffffffffffffffffffffffffffffffffffffff1614806118b757506118b68484610b9a565b5b806118f557508273ffffffffffffffffffffffffffffffffffffffff166118dd83610f6b565b73ffffffffffffffffffffffffffffffffffffffff16145b5b90509392505050565b6000604051905090565b600080fd5b600080fd5b600073ffffffffffffffffffffffffffffffffffffffff82169050919050565b600061193e82611913565b9050919050565b61194e81611933565b811461195957600080fd5b50565b60008135905061196b81611945565b92915050565b60006020828403121561198757611986611909565b5b60006119958482850161195c565b91505092915050565b60007fffffffff0000000000000000000000000000000000000000000000000000000082169050919050565b6119d38161199e565b81146119de57600080fd5b50565b6000813590506119f0816119ca565b92915050565b600060208284031215611a0c57611a0b611909565b5b6000611a1a848285016119e1565b91505092915050565b60008115159050919050565b611a3881611a23565b82525050565b6000602082019050611a536000830184611a2f565b92915050565b600081519050919050565b600082825260208201905092915050565b60005b83811015611a93578082015181840152602081019050611a78565b60008484015250505050565b6000601f19601f8301169050919050565b6000611abb82611a59565b611ac58185611a64565b9350611ad5818560208601611a75565b611ade81611a9f565b840191505092915050565b60006020820190508181036000830152611b038184611ab0565b905092915050565b6000819050919050565b611b1e81611b0b565b8114611b2957600080fd5b50565b600081359050611b3b81611b15565b92915050565b600060208284031215611b5757611b56611909565b5b6000611b6584828501611b2c565b91505092915050565b611b7781611933565b82525050565b6000602082019050611b926000830184611b6e565b92915050565b60008060408385031215611baf57611bae611909565b5b6000611bbd8582860161195c565b9250506020611bce85828601611b2c565b9150509250929050565b611be181611b0b565b82525050565b6000602082019050611bfc6000830184611bd8565b92915050565b600080600060608486031215611c1b57611c1a611909565b5b6000611c298682870161195c565b9350506020611c3a8682870161195c565b9250506040611c4b86828701611b2c565b9150509250925092565b611c5e81611a23565b8114611c6957600080fd5b50565b600081359050611c7b81611c55565b92915050565b60008060408385031215611c9857611c97611909565b5b6000611ca68582860161195c565b9250506020611cb785828601611c6c565b9150509250929050565b600080fd5b600080fd5b7f4e487b7100000000000000000000000000000000000000000000000000000000600052604160045260246000fd5b611d0382611a9f565b810181811067ffffffffffffffff82111715611d2257611d21611ccb565b5b80604052505050565b6000611d356118ff565b9050611d418282611cfa565b919050565b600067ffffffffffffffff821115611d6157611d60611ccb565b5b611d6a82611a9f565b9050602081019050919050565b82818337600083830152505050565b6000611d99611d9484611d46565b611d2b565b905082815260208101848484011115611db557611db4611cc6565b5b611dc0848285611d77565b509392505050565b600082601f830112611ddd57611ddc611cc1565b5b8135611ded848260208601611d86565b91505092915050565b60008060008060808587031215611e1057611e0f611909565b5b6000611e1e8782880161195c565b9450506020611e2f8782880161195c565b9350506040611e4087828801611b2c565b925050606085013567ffffffffffffffff811115611e6157611e6061190e565b5b611e6d87828801611dc8565b91505092959194509250565b60008060408385031215611e9057611e8f611909565b5b6000611e9e8582860161195c565b9250506020611eaf8582860161195c565b9150509250929050565b7f496e73756666696369656e74207061796d656e74000000000000000000000000600082015250565b6000611eef601483611a64565b9150611efa82611eb9565b602082019050919050565b60006020820190508181036000830152611f1e81611ee2565b9050919050565b7f4e487b7100000000000000000000000000000000000000000000000000000000600052601160045260246000fd5b6000611f5f82611b0b565b9150611f6a83611b0b565b9250828201905080821115611f8257611f81611f25565b5b92915050565b7f4e487b7100000000000000000000000000000000000000000000000000000000600052602260045260246000fd5b60006002820490506001821680611fcf57607f821691505b602082108103611fe257611fe1611f88565b5b50919050565b6000606082019050611ffd6000830186611b6e565b61200a6020830185611bd8565b6120176040830184611b6e565b949350505050565b7f4572726f722043616c6c65720000000000000000000000000000000000000000600082015250565b6000612055600c83611a64565b91506120608261201f565b602082019050919050565b6000602082019050818103600083015261208481612048565b9050919050565b600081905092915050565b60006120a182611a59565b6120ab818561208b565b93506120bb818560208601611a75565b80840191505092915050565b60006120d38285612096565b91506120df8284612096565b91508190509392505050565b7f54686520746f6b656e206973206c6f636b656400000000000000000000000000600082015250565b6000612121601383611a64565b915061212c826120eb565b602082019050919050565b6000602082019050818103600083015261215081612114565b9050919050565b600081519050919050565b600082825260208201905092915050565b600061217e82612157565b6121888185612162565b9350612198818560208601611a75565b6121a181611a9f565b840191505092915050565b60006080820190506121c16000830187611b6e565b6121ce6020830186611b6e565b6121db6040830185611bd8565b81810360608301526121ed8184612173565b905095945050505050565b600081519050612207816119ca565b92915050565b60006020828403121561222357612222611909565b5b6000612231848285016121f8565b91505092915050565b7f4e487b7100000000000000000000000000000000000000000000000000000000600052601260045260246000fd5b600060408201905061227e6000830185611b6e565b61228b6020830184611bd8565b939250505056fea26469706673582212209f9eb2e874b16acec467049c2838e4459bf641ae5492eabdcae6e4381c31cec464736f6c63430008180033",
  "linkReferences": {},
  "deployedLinkReferences": {}
}