{
  "_format": "hh-sol-artifact-1",
  "contractName": "CacheProtocol",
  "sourceName": "contracts/CacheProtocol.sol",
  "abi": [
    {
      "inputs": [
        {
          "internalType": "address",
          "name": "peerid",
          "type": "address"
        }
      ],
      "stateMutability": "nonpayable",
      "type": "constructor"
    },
    {
      "inputs": [],
      "name": "ECDSAInvalidSignature",
      "type": "error"
    },
    {
      "inputs": [
        {
          "internalType": "uint256",
          "name": "length",
          "type": "uint256"
        }
      ],
      "name": "ECDSAInvalidSignatureLength",
      "type": "error"
    },
    {
      "inputs": [
        {
          "internalType": "bytes32",
          "name": "s",
          "type": "bytes32"
        }
      ],
      "name": "ECDSAInvalidSignatureS",
      "type": "error"
    },
    {
      "anonymous": false,
      "inputs": [
        {
          "indexed": true,
          "internalType": "address",
          "name": "nodeAcc",
          "type": "address"
        },
        {
          "indexed": false,
          "internalType": "uint256",
          "name": "reward",
          "type": "uint256"
        }
      ],
      "name": "Claim",
      "type": "event"
    },
    {
      "anonymous": false,
      "inputs": [
        {
          "indexed": true,
          "internalType": "address",
          "name": "nodeAcc",
          "type": "address"
        }
      ],
      "name": "Exit",
      "type": "event"
    },
    {
      "anonymous": false,
      "inputs": [
        {
          "indexed": true,
          "internalType": "bytes32",
          "name": "orderId",
          "type": "bytes32"
        },
        {
          "indexed": true,
          "internalType": "address",
          "name": "nodeAcc",
          "type": "address"
        }
      ],
      "name": "OrderPayment",
      "type": "event"
    },
    {
      "anonymous": false,
      "inputs": [
        {
          "indexed": true,
          "internalType": "address",
          "name": "nodeAcc",
          "type": "address"
        },
        {
          "indexed": true,
          "internalType": "uint256",
          "name": "tokenId",
          "type": "uint256"
        }
      ],
      "name": "Staking",
      "type": "event"
    },
    {
      "inputs": [
        {
          "internalType": "address",
          "name": "",
          "type": "address"
        }
      ],
      "name": "CacheReward",
      "outputs": [
        {
          "internalType": "uint256",
          "name": "",
          "type": "uint256"
        }
      ],
      "stateMutability": "view",
      "type": "function"
    },
    {
      "inputs": [
        {
          "internalType": "address",
          "name": "",
          "type": "address"
        }
      ],
      "name": "Node",
      "outputs": [
        {
          "internalType": "bool",
          "name": "created",
          "type": "bool"
        },
        {
          "internalType": "uint256",
          "name": "collerate",
          "type": "uint256"
        },
        {
          "internalType": "uint256",
          "name": "tokenId",
          "type": "uint256"
        },
        {
          "internalType": "bytes",
          "name": "peerId",
          "type": "bytes"
        }
      ],
      "stateMutability": "view",
      "type": "function"
    },
    {
      "inputs": [
        {
          "internalType": "bytes32",
          "name": "",
          "type": "bytes32"
        }
      ],
      "name": "Order",
      "outputs": [
        {
          "internalType": "uint256",
          "name": "value",
          "type": "uint256"
        },
        {
          "internalType": "address",
          "name": "creater",
          "type": "address"
        },
        {
          "internalType": "address",
          "name": "node",
          "type": "address"
        },
        {
          "internalType": "uint256",
          "name": "term",
          "type": "uint256"
        }
      ],
      "stateMutability": "view",
      "type": "function"
    },
    {
      "inputs": [
        {
          "internalType": "address",
          "name": "",
          "type": "address"
        }
      ],
      "name": "OrderNum",
      "outputs": [
        {
          "internalType": "uint256",
          "name": "",
          "type": "uint256"
        }
      ],
      "stateMutability": "view",
      "type": "function"
    },
    {
      "inputs": [
        {
          "internalType": "address",
          "name": "",
          "type": "address"
        }
      ],
      "name": "RewardRecord",
      "outputs": [
        {
          "internalType": "uint256",
          "name": "",
          "type": "uint256"
        }
      ],
      "stateMutability": "view",
      "type": "function"
    },
    {
      "inputs": [
        {
          "internalType": "uint256",
          "name": "",
          "type": "uint256"
        }
      ],
      "name": "TermTotalOrder",
      "outputs": [
        {
          "internalType": "uint256",
          "name": "",
          "type": "uint256"
        }
      ],
      "stateMutability": "view",
      "type": "function"
    },
    {
      "inputs": [
        {
          "internalType": "uint256",
          "name": "",
          "type": "uint256"
        }
      ],
      "name": "TokenBonded",
      "outputs": [
        {
          "internalType": "bool",
          "name": "",
          "type": "bool"
        }
      ],
      "stateMutability": "view",
      "type": "function"
    },
    {
      "inputs": [
        {
          "internalType": "address",
          "name": "nodeAcc",
          "type": "address"
        }
      ],
      "name": "cacheOrderPayment",
      "outputs": [],
      "stateMutability": "payable",
      "type": "function"
    },
    {
      "inputs": [],
      "name": "claim",
      "outputs": [],
      "stateMutability": "nonpayable",
      "type": "function"
    },
    {
      "inputs": [],
      "name": "exit",
      "outputs": [],
      "stateMutability": "nonpayable",
      "type": "function"
    },
    {
      "inputs": [],
      "name": "getCurrencyTerm",
      "outputs": [
        {
          "internalType": "uint256",
          "name": "",
          "type": "uint256"
        }
      ],
      "stateMutability": "view",
      "type": "function"
    },
    {
      "inputs": [
        {
          "internalType": "address",
          "name": "_account",
          "type": "address"
        },
        {
          "internalType": "uint256",
          "name": "_tokenId",
          "type": "uint256"
        }
      ],
      "name": "getMessageHash",
      "outputs": [
        {
          "internalType": "bytes32",
          "name": "",
          "type": "bytes32"
        }
      ],
      "stateMutability": "pure",
      "type": "function"
    },
    {
      "inputs": [
        {
          "internalType": "address",
          "name": "acc",
          "type": "address"
        },
        {
          "internalType": "uint256",
          "name": "tokenId",
          "type": "uint256"
        }
      ],
      "name": "isTokenOwner",
      "outputs": [
        {
          "internalType": "bool",
          "name": "",
          "type": "bool"
        }
      ],
      "stateMutability": "view",
      "type": "function"
    },
    {
      "inputs": [
        {
          "internalType": "bytes32",
          "name": "_msgHash",
          "type": "bytes32"
        },
        {
          "internalType": "bytes",
          "name": "_signature",
          "type": "bytes"
        }
      ],
      "name": "openRecover",
      "outputs": [
        {
          "internalType": "address",
          "name": "",
          "type": "address"
        }
      ],
      "stateMutability": "view",
      "type": "function"
    },
    {
      "inputs": [
        {
          "internalType": "bytes32",
          "name": "orderId",
          "type": "bytes32"
        }
      ],
      "name": "orderClaim",
      "outputs": [],
      "stateMutability": "nonpayable",
      "type": "function"
    },
    {
      "inputs": [
        {
          "internalType": "bytes32",
          "name": "_msgHash",
          "type": "bytes32"
        },
        {
          "internalType": "bytes",
          "name": "_signature",
          "type": "bytes"
        }
      ],
      "name": "recoverSigner",
      "outputs": [
        {
          "internalType": "address",
          "name": "",
          "type": "address"
        }
      ],
      "stateMutability": "pure",
      "type": "function"
    },
    {
      "inputs": [
        {
          "internalType": "address",
          "name": "nodeAcc",
          "type": "address"
        },
        {
          "internalType": "address",
          "name": "tokenAcc",
          "type": "address"
        },
        {
          "internalType": "uint256",
          "name": "tokenId",
          "type": "uint256"
        },
        {
          "internalType": "bytes",
          "name": "_peerId",
          "type": "bytes"
        },
        {
          "internalType": "bytes",
          "name": "_signature",
          "type": "bytes"
        }
      ],
      "name": "staking",
      "outputs": [],
      "stateMutability": "payable",
      "type": "function"
    },
    {
      "inputs": [
        {
          "internalType": "bytes32",
          "name": "hash",
          "type": "bytes32"
        }
      ],
      "name": "toEthSignedMessageHash",
      "outputs": [
        {
          "internalType": "bytes32",
          "name": "",
          "type": "bytes32"
        }
      ],
      "stateMutability": "pure",
      "type": "function"
    },
    {
      "inputs": [
        {
          "internalType": "bytes32",
          "name": "_msgHash",
          "type": "bytes32"
        },
        {
          "internalType": "bytes",
          "name": "_signature",
          "type": "bytes"
        },
        {
          "internalType": "address",
          "name": "_signer",
          "type": "address"
        }
      ],
      "name": "verify",
      "outputs": [
        {
          "internalType": "bool",
          "name": "",
          "type": "bool"
        }
      ],
      "stateMutability": "pure",
      "type": "function"
    }
  ],
  "bytecode": "0x60806040523480156200001157600080fd5b506040516200313a3803806200313a833981810160405281019062000037919062000130565b806000806101000a81548173ffffffffffffffffffffffffffffffffffffffff021916908373ffffffffffffffffffffffffffffffffffffffff16021790555033600160006101000a81548173ffffffffffffffffffffffffffffffffffffffff021916908373ffffffffffffffffffffffffffffffffffffffff160217905550426002819055505062000162565b600080fd5b600073ffffffffffffffffffffffffffffffffffffffff82169050919050565b6000620000f882620000cb565b9050919050565b6200010a81620000eb565b81146200011657600080fd5b50565b6000815190506200012a81620000ff565b92915050565b600060208284031215620001495762000148620000c6565b5b6000620001598482850162000119565b91505092915050565b612fc880620001726000396000f3fe6080604052600436106101145760003560e01c80637094d904116100a057806398f7ceab1161006457806398f7ceab146103e7578063b6a525cb14610424578063e97e23e614610461578063e9fad8ee1461049e578063eeca2ab6146104b557610114565b80637094d904146102b6578063823ac373146102f35780638b166d6414610330578063918a15cf1461036d57806397aba7f9146103aa57610114565b8063564f4c8b116100e7578063564f4c8b146101c657806357b1d18f146102065780635f6296f91461022f5780636d19c92a1461024b5780636f0173b71461028b57610114565b806303533982146101195780632f704382146101355780634e71d92d14610172578063512c91df14610189575b600080fd5b610133600480360381019061012e919061209c565b6104f2565b005b34801561014157600080fd5b5061015c6004803603810190610157919061214f565b61080b565b604051610169919061218b565b60405180910390f35b34801561017e57600080fd5b50610187610823565b005b34801561019557600080fd5b506101b060048036038101906101ab91906121a6565b610d48565b6040516101bd91906121ff565b60405180910390f35b3480156101d257600080fd5b506101ed60048036038101906101e89190612246565b610d7b565b6040516101fd9493929190612282565b60405180910390f35b34801561021257600080fd5b5061022d60048036038101906102289190612246565b610deb565b005b6102496004803603810190610244919061214f565b610fb7565b005b34801561025757600080fd5b50610272600480360381019061026d919061214f565b6112f3565b6040516102829493929190612361565b60405180910390f35b34801561029757600080fd5b506102a06113b8565b6040516102ad919061218b565b60405180910390f35b3480156102c257600080fd5b506102dd60048036038101906102d891906123ad565b6113db565b6040516102ea91906123da565b60405180910390f35b3480156102ff57600080fd5b5061031a600480360381019061031591906123f5565b6113fb565b60405161032791906123da565b60405180910390f35b34801561033c57600080fd5b506103576004803603810190610352919061214f565b61143e565b604051610364919061218b565b60405180910390f35b34801561037957600080fd5b50610394600480360381019061038f9190612246565b611456565b6040516103a191906121ff565b60405180910390f35b3480156103b657600080fd5b506103d160048036038101906103cc9190612464565b611486565b6040516103de91906124c0565b60405180910390f35b3480156103f357600080fd5b5061040e600480360381019061040991906121a6565b611543565b60405161041b91906123da565b60405180910390f35b34801561043057600080fd5b5061044b60048036038101906104469190612464565b61161a565b60405161045891906124c0565b60405180910390f35b34801561046d57600080fd5b50610488600480360381019061048391906123ad565b611710565b604051610495919061218b565b60405180910390f35b3480156104aa57600080fd5b506104b3611728565b005b3480156104c157600080fd5b506104dc60048036038101906104d7919061214f565b611aca565b6040516104e9919061218b565b60405180910390f35b68a2a15d09519be0000034101561053e576040517f08c379a000000000000000000000000000000000000000000000000000000000815260040161053590612538565b60405180910390fd5b6000151561054c8585611543565b15150361058e576040517f08c379a0000000000000000000000000000000000000000000000000000000008152600401610585906125a4565b60405180910390fd5b600061059a8685610d48565b905060006105a782611456565b9050600015156105b88285896113fb565b1515036105fa576040517f08c379a00000000000000000000000000000000000000000000000000000000081526004016105f190612610565b60405180910390fd5b604051806080016040528060011515815260200134815260200186815260200185815250600860008973ffffffffffffffffffffffffffffffffffffffff1673ffffffffffffffffffffffffffffffffffffffff16815260200190815260200160002060008201518160000160006101000a81548160ff021916908315150217905550602082015181600101556040820151816002015560608201518160030190816106a6919061283c565b509050506000600660008973ffffffffffffffffffffffffffffffffffffffff1673ffffffffffffffffffffffffffffffffffffffff168152602001908152602001600020819055506000600a60008973ffffffffffffffffffffffffffffffffffffffff1673ffffffffffffffffffffffffffffffffffffffff168152602001908152602001600020819055506000600b60008973ffffffffffffffffffffffffffffffffffffffff1673ffffffffffffffffffffffffffffffffffffffff16815260200190815260200160002081905550346005600082825461078b919061293d565b9250508190555060016009600087815260200190815260200160002060006101000a81548160ff021916908315150217905550848773ffffffffffffffffffffffffffffffffffffffff167fb831f69f1cebc12b23cd864ce5bfea2669d01956050a0147d71d418074559c2160405160405180910390a350505050505050565b60066020528060005260406000206000915090505481565b600061082d6113b8565b905060018161083c9190612971565b600b60003373ffffffffffffffffffffffffffffffffffffffff1673ffffffffffffffffffffffffffffffffffffffff16815260200190815260200160002054106108bc576040517f08c379a00000000000000000000000000000000000000000000000000000000081526004016108b390612a17565b60405180910390fd5b6000600860003373ffffffffffffffffffffffffffffffffffffffff1673ffffffffffffffffffffffffffffffffffffffff1681526020019081526020016000206040518060800160405290816000820160009054906101000a900460ff1615151515815260200160018201548152602001600282015481526020016003820180546109479061265f565b80601f01602080910402602001604051908101604052809291908181526020018280546109739061265f565b80156109c05780601f10610995576101008083540402835291602001916109c0565b820191906000526020600020905b8154815290600101906020018083116109a357829003601f168201915b50505050508152505090508060000151610a0f576040517f08c379a0000000000000000000000000000000000000000000000000000000008152600401610a0690612a83565b60405180910390fd5b6000610a19611ae2565b9050600060076000600186610a2e9190612971565b815260200190815260200160002054600354610a4a919061293d565b9050600081600354610a5c9190612ad2565b90506000600660003373ffffffffffffffffffffffffffffffffffffffff1673ffffffffffffffffffffffffffffffffffffffff1681526020019081526020016000205490506000600a60003373ffffffffffffffffffffffffffffffffffffffff1673ffffffffffffffffffffffffffffffffffffffff168152602001908152602001600020549050600069152d02c7e14af6800000600a60026005548a60200151610b099190612ad2565b610b139190612b03565b610b1d9190612ad2565b600a6002888888610b2e9190612971565b8b610b399190612b03565b89610b44919061293d565b610b4e9190612ad2565b610b589190612b03565b610b629190612ad2565b610b6c919061293d565b610b769190612b03565b90506000606460288385610b8a919061293d565b610b949190612b03565b610b9e9190612ad2565b9050808284610bad919061293d565b610bb79190612971565b600a60003373ffffffffffffffffffffffffffffffffffffffff1673ffffffffffffffffffffffffffffffffffffffff168152602001908152602001600020819055503373ffffffffffffffffffffffffffffffffffffffff166108fc829081150290604051600060405180830381858888f19350505050158015610c40573d6000803e3d6000fd5b50600189610c4e9190612971565b600b60003373ffffffffffffffffffffffffffffffffffffffff1673ffffffffffffffffffffffffffffffffffffffff168152602001908152602001600020819055506000600660003373ffffffffffffffffffffffffffffffffffffffff1673ffffffffffffffffffffffffffffffffffffffff168152602001908152602001600020819055508360046000828254610ce89190612971565b925050819055503373ffffffffffffffffffffffffffffffffffffffff167f47cee97cb7acd717b3c0aa1435d004cd5b3c8c57d70dbceb4e4458bbd60e39d482604051610d35919061218b565b60405180910390a2505050505050505050565b60008282604051602001610d5d929190612bae565b60405160208183030381529060405280519060200120905092915050565b600c6020528060005260406000206000915090508060000154908060010160009054906101000a900473ffffffffffffffffffffffffffffffffffffffff16908060020160009054906101000a900473ffffffffffffffffffffffffffffffffffffffff16908060030154905084565b6000600c6000838152602001908152602001600020604051806080016040529081600082015481526020016001820160009054906101000a900473ffffffffffffffffffffffffffffffffffffffff1673ffffffffffffffffffffffffffffffffffffffff1673ffffffffffffffffffffffffffffffffffffffff1681526020016002820160009054906101000a900473ffffffffffffffffffffffffffffffffffffffff1673ffffffffffffffffffffffffffffffffffffffff1673ffffffffffffffffffffffffffffffffffffffff16815260200160038201548152505090503373ffffffffffffffffffffffffffffffffffffffff16816040015173ffffffffffffffffffffffffffffffffffffffff1614610f3f576040517f08c379a0000000000000000000000000000000000000000000000000000000008152600401610f3690612c26565b60405180910390fd5b600c60008381526020019081526020016000206000808201600090556001820160006101000a81549073ffffffffffffffffffffffffffffffffffffffff02191690556002820160006101000a81549073ffffffffffffffffffffffffffffffffffffffff0219169055600382016000905550505050565b67016345785d8a0000341015611002576040517f08c379a0000000000000000000000000000000000000000000000000000000008152600401610ff990612c92565b60405180910390fd5b600061100c6113b8565b9050600061101983611b3f565b9050600060405180608001604052803481526020013373ffffffffffffffffffffffffffffffffffffffff1681526020018573ffffffffffffffffffffffffffffffffffffffff16815260200184815250905080600c60008481526020019081526020016000206000820151816000015560208201518160010160006101000a81548173ffffffffffffffffffffffffffffffffffffffff021916908373ffffffffffffffffffffffffffffffffffffffff16021790555060408201518160020160006101000a81548173ffffffffffffffffffffffffffffffffffffffff021916908373ffffffffffffffffffffffffffffffffffffffff16021790555060608201518160030155905050600067016345785d8a00003461113b9190612ad2565b905080600660008773ffffffffffffffffffffffffffffffffffffffff1673ffffffffffffffffffffffffffffffffffffffff168152602001908152602001600020600082825461118c919061293d565b9250508190555060006007600086815260200190815260200160002054036111f6576004548160076000878152602001908152602001600020546111d0919061293d565b6111da919061293d565b6007600086815260200190815260200160002081905550611221565b80600760008681526020019081526020016000206000828254611219919061293d565b925050819055505b8060046000828254611233919061293d565b9250508190555060646050346112499190612b03565b6112539190612ad2565b600a60008773ffffffffffffffffffffffffffffffffffffffff1673ffffffffffffffffffffffffffffffffffffffff16815260200190815260200160002060008282546112a1919061293d565b925050819055508473ffffffffffffffffffffffffffffffffffffffff16837fd56b6efb3032698dabc9d765e5f94cfafbd4903326a2ae5c831b7da1bde226f060405160405180910390a35050505050565b60086020528060005260406000206000915090508060000160009054906101000a900460ff16908060010154908060020154908060030180546113359061265f565b80601f01602080910402602001604051908101604052809291908181526020018280546113619061265f565b80156113ae5780601f10611383576101008083540402835291602001916113ae565b820191906000526020600020905b81548152906001019060200180831161139157829003601f168201915b5050505050905084565b600062093a80600254426113cc9190612971565b6113d69190612ad2565b905090565b60096020528060005260406000206000915054906101000a900460ff1681565b60008173ffffffffffffffffffffffffffffffffffffffff1661141e8585611486565b73ffffffffffffffffffffffffffffffffffffffff161490509392505050565b600a6020528060005260406000206000915090505481565b6000816040516020016114699190612d2a565b604051602081830303815290604052805190602001209050919050565b600060418251146114cc576040517f08c379a00000000000000000000000000000000000000000000000000000000081526004016114c390612d9c565b60405180910390fd5b60008060006020850151925060408501519150606085015160001a90506001868285856040516000815260200160405260405161150c9493929190612dd8565b6020604051602081039080840390855afa15801561152e573d6000803e3d6000fd5b50505060206040510351935050505092915050565b60008060008054906101000a900473ffffffffffffffffffffffffffffffffffffffff1673ffffffffffffffffffffffffffffffffffffffff16636352211e846040518263ffffffff1660e01b815260040161159f919061218b565b602060405180830381865afa1580156115bc573d6000803e3d6000fd5b505050506040513d601f19601f820116820180604052508101906115e09190612e32565b90508373ffffffffffffffffffffffffffffffffffffffff168173ffffffffffffffffffffffffffffffffffffffff161491505092915050565b6000806116278484611b71565b9050600073ffffffffffffffffffffffffffffffffffffffff168173ffffffffffffffffffffffffffffffffffffffff1603611698576040517f08c379a000000000000000000000000000000000000000000000000000000000815260040161168f90612eab565b60405180910390fd5b3373ffffffffffffffffffffffffffffffffffffffff168173ffffffffffffffffffffffffffffffffffffffff1614611706576040517f08c379a00000000000000000000000000000000000000000000000000000000081526004016116fd90612f17565b60405180910390fd5b8091505092915050565b60076020528060005260406000206000915090505481565b6000600860003373ffffffffffffffffffffffffffffffffffffffff1673ffffffffffffffffffffffffffffffffffffffff1681526020019081526020016000206040518060800160405290816000820160009054906101000a900460ff1615151515815260200160018201548152602001600282015481526020016003820180546117b39061265f565b80601f01602080910402602001604051908101604052809291908181526020018280546117df9061265f565b801561182c5780601f106118015761010080835404028352916020019161182c565b820191906000526020600020905b81548152906001019060200180831161180f57829003601f168201915b5050505050815250509050806000015161187b576040517f08c379a000000000000000000000000000000000000000000000000000000000815260040161187290612a83565b60405180910390fd5b3373ffffffffffffffffffffffffffffffffffffffff166108fc82602001519081150290604051600060405180830381858888f193505050501580156118c5573d6000803e3d6000fd5b50600660003373ffffffffffffffffffffffffffffffffffffffff1673ffffffffffffffffffffffffffffffffffffffff16815260200190815260200160002054600460008282546119179190612971565b92505081905550600660003373ffffffffffffffffffffffffffffffffffffffff1673ffffffffffffffffffffffffffffffffffffffff16815260200190815260200160002060009055600860003373ffffffffffffffffffffffffffffffffffffffff1673ffffffffffffffffffffffffffffffffffffffff168152602001908152602001600020600080820160006101000a81549060ff0219169055600182016000905560028201600090556003820160006119d59190611e51565b5050600b60003373ffffffffffffffffffffffffffffffffffffffff1673ffffffffffffffffffffffffffffffffffffffff16815260200190815260200160002060009055600a60003373ffffffffffffffffffffffffffffffffffffffff1673ffffffffffffffffffffffffffffffffffffffff16815260200190815260200160002060009055600960008260400151815260200190815260200160002060006101000a81549060ff02191690553373ffffffffffffffffffffffffffffffffffffffff167f7c79e6e24ed041d1072d54523b53956f01b91b835f0490856370594d9d14470e60405160405180910390a250565b600b6020528060005260406000206000915090505481565b6000611770611aef6113b8565b6026611afb9190612b03565b6107d0611b08919061293d565b1015611b3657611b166113b8565b6026611b229190612b03565b6107d0611b2f919061293d565b9050611b3c565b61177090505b90565b60004282604051602001611b54929190612f37565b604051602081830303815290604052805190602001209050919050565b600080600080611b818686611b9d565b925092509250611b918282611bf9565b82935050505092915050565b60008060006041845103611be25760008060006020870151925060408701519150606087015160001a9050611bd488828585611d5d565b955095509550505050611bf2565b60006002855160001b9250925092505b9250925092565b60006003811115611c0d57611c0c612f63565b5b826003811115611c2057611c1f612f63565b5b0315611d595760016003811115611c3a57611c39612f63565b5b826003811115611c4d57611c4c612f63565b5b03611c84576040517ff645eedf00000000000000000000000000000000000000000000000000000000815260040160405180910390fd5b60026003811115611c9857611c97612f63565b5b826003811115611cab57611caa612f63565b5b03611cf0578060001c6040517ffce698f7000000000000000000000000000000000000000000000000000000008152600401611ce7919061218b565b60405180910390fd5b600380811115611d0357611d02612f63565b5b826003811115611d1657611d15612f63565b5b03611d5857806040517fd78bce0c000000000000000000000000000000000000000000000000000000008152600401611d4f91906121ff565b60405180910390fd5b5b5050565b60008060007f7fffffffffffffffffffffffffffffff5d576e7357a4501ddfe92f46681b20a08460001c1115611d9d576000600385925092509250611e47565b600060018888888860405160008152602001604052604051611dc29493929190612dd8565b6020604051602081039080840390855afa158015611de4573d6000803e3d6000fd5b505050602060405103519050600073ffffffffffffffffffffffffffffffffffffffff168173ffffffffffffffffffffffffffffffffffffffff1603611e3857600060016000801b93509350935050611e47565b8060008060001b935093509350505b9450945094915050565b508054611e5d9061265f565b6000825580601f10611e6f5750611e8e565b601f016020900490600052602060002090810190611e8d9190611e91565b5b50565b5b80821115611eaa576000816000905550600101611e92565b5090565b6000604051905090565b600080fd5b600080fd5b600073ffffffffffffffffffffffffffffffffffffffff82169050919050565b6000611eed82611ec2565b9050919050565b611efd81611ee2565b8114611f0857600080fd5b50565b600081359050611f1a81611ef4565b92915050565b6000819050919050565b611f3381611f20565b8114611f3e57600080fd5b50565b600081359050611f5081611f2a565b92915050565b600080fd5b600080fd5b6000601f19601f8301169050919050565b7f4e487b7100000000000000000000000000000000000000000000000000000000600052604160045260246000fd5b611fa982611f60565b810181811067ffffffffffffffff82111715611fc857611fc7611f71565b5b80604052505050565b6000611fdb611eae565b9050611fe78282611fa0565b919050565b600067ffffffffffffffff82111561200757612006611f71565b5b61201082611f60565b9050602081019050919050565b82818337600083830152505050565b600061203f61203a84611fec565b611fd1565b90508281526020810184848401111561205b5761205a611f5b565b5b61206684828561201d565b509392505050565b600082601f83011261208357612082611f56565b5b813561209384826020860161202c565b91505092915050565b600080600080600060a086880312156120b8576120b7611eb8565b5b60006120c688828901611f0b565b95505060206120d788828901611f0b565b94505060406120e888828901611f41565b935050606086013567ffffffffffffffff81111561210957612108611ebd565b5b6121158882890161206e565b925050608086013567ffffffffffffffff81111561213657612135611ebd565b5b6121428882890161206e565b9150509295509295909350565b60006020828403121561216557612164611eb8565b5b600061217384828501611f0b565b91505092915050565b61218581611f20565b82525050565b60006020820190506121a0600083018461217c565b92915050565b600080604083850312156121bd576121bc611eb8565b5b60006121cb85828601611f0b565b92505060206121dc85828601611f41565b9150509250929050565b6000819050919050565b6121f9816121e6565b82525050565b600060208201905061221460008301846121f0565b92915050565b612223816121e6565b811461222e57600080fd5b50565b6000813590506122408161221a565b92915050565b60006020828403121561225c5761225b611eb8565b5b600061226a84828501612231565b91505092915050565b61227c81611ee2565b82525050565b6000608082019050612297600083018761217c565b6122a46020830186612273565b6122b16040830185612273565b6122be606083018461217c565b95945050505050565b60008115159050919050565b6122dc816122c7565b82525050565b600081519050919050565b600082825260208201905092915050565b60005b8381101561231c578082015181840152602081019050612301565b60008484015250505050565b6000612333826122e2565b61233d81856122ed565b935061234d8185602086016122fe565b61235681611f60565b840191505092915050565b600060808201905061237660008301876122d3565b612383602083018661217c565b612390604083018561217c565b81810360608301526123a28184612328565b905095945050505050565b6000602082840312156123c3576123c2611eb8565b5b60006123d184828501611f41565b91505092915050565b60006020820190506123ef60008301846122d3565b92915050565b60008060006060848603121561240e5761240d611eb8565b5b600061241c86828701612231565b935050602084013567ffffffffffffffff81111561243d5761243c611ebd565b5b6124498682870161206e565b925050604061245a86828701611f0b565b9150509250925092565b6000806040838503121561247b5761247a611eb8565b5b600061248985828601612231565b925050602083013567ffffffffffffffff8111156124aa576124a9611ebd565b5b6124b68582860161206e565b9150509250929050565b60006020820190506124d56000830184612273565b92915050565b600082825260208201905092915050565b7f496e73756666696369656e7420706c6564676520616d6f756e74000000000000600082015250565b6000612522601a836124db565b915061252d826124ec565b602082019050919050565b6000602082019050818103600083015261255181612515565b9050919050565b7f4e6f742074686520746f6b656e20686f6c646572000000000000000000000000600082015250565b600061258e6014836124db565b915061259982612558565b602082019050919050565b600060208201905081810360008301526125bd81612581565b9050919050565b7f766572696679207369676e6174757265206661696c6564000000000000000000600082015250565b60006125fa6017836124db565b9150612605826125c4565b602082019050919050565b60006020820190508181036000830152612629816125ed565b9050919050565b7f4e487b7100000000000000000000000000000000000000000000000000000000600052602260045260246000fd5b6000600282049050600182168061267757607f821691505b60208210810361268a57612689612630565b5b50919050565b60008190508160005260206000209050919050565b60006020601f8301049050919050565b600082821b905092915050565b6000600883026126f27fffffffffffffffffffffffffffffffffffffffffffffffffffffffffffffffff826126b5565b6126fc86836126b5565b95508019841693508086168417925050509392505050565b6000819050919050565b600061273961273461272f84611f20565b612714565b611f20565b9050919050565b6000819050919050565b6127538361271e565b61276761275f82612740565b8484546126c2565b825550505050565b600090565b61277c61276f565b61278781848461274a565b505050565b5b818110156127ab576127a0600082612774565b60018101905061278d565b5050565b601f8211156127f0576127c181612690565b6127ca846126a5565b810160208510156127d9578190505b6127ed6127e5856126a5565b83018261278c565b50505b505050565b600082821c905092915050565b6000612813600019846008026127f5565b1980831691505092915050565b600061282c8383612802565b9150826002028217905092915050565b612845826122e2565b67ffffffffffffffff81111561285e5761285d611f71565b5b612868825461265f565b6128738282856127af565b600060209050601f8311600181146128a65760008415612894578287015190505b61289e8582612820565b865550612906565b601f1984166128b486612690565b60005b828110156128dc578489015182556001820191506020850194506020810190506128b7565b868310156128f957848901516128f5601f891682612802565b8355505b6001600288020188555050505b505050505050565b7f4e487b7100000000000000000000000000000000000000000000000000000000600052601160045260246000fd5b600061294882611f20565b915061295383611f20565b925082820190508082111561296b5761296a61290e565b5b92915050565b600061297c82611f20565b915061298783611f20565b925082820390508181111561299f5761299e61290e565b5b92915050565b7f506c65617365207761697420756e74696c20746865206e657874207465726d2060008201527f746f20636c61696d207468652072657761726400000000000000000000000000602082015250565b6000612a016033836124db565b9150612a0c826129a5565b604082019050919050565b60006020820190508181036000830152612a30816129f4565b9050919050565b7f4361636865206e6f6465206e6f74207265676973746572656400000000000000600082015250565b6000612a6d6019836124db565b9150612a7882612a37565b602082019050919050565b60006020820190508181036000830152612a9c81612a60565b9050919050565b7f4e487b7100000000000000000000000000000000000000000000000000000000600052601260045260246000fd5b6000612add82611f20565b9150612ae883611f20565b925082612af857612af7612aa3565b5b828204905092915050565b6000612b0e82611f20565b9150612b1983611f20565b9250828202612b2781611f20565b91508282048414831517612b3e57612b3d61290e565b5b5092915050565b60008160601b9050919050565b6000612b5d82612b45565b9050919050565b6000612b6f82612b52565b9050919050565b612b87612b8282611ee2565b612b64565b82525050565b6000819050919050565b612ba8612ba382611f20565b612b8d565b82525050565b6000612bba8285612b76565b601482019150612bca8284612b97565b6020820191508190509392505050565b7f6e6f74206f72646572206e6f6465000000000000000000000000000000000000600082015250565b6000612c10600e836124db565b9150612c1b82612bda565b602082019050919050565b60006020820190508181036000830152612c3f81612c03565b9050919050565b7f496e73756666696369656e7420616d6f756e7400000000000000000000000000600082015250565b6000612c7c6013836124db565b9150612c8782612c46565b602082019050919050565b60006020820190508181036000830152612cab81612c6f565b9050919050565b600081905092915050565b7f19457468657265756d205369676e6564204d6573736167653a0a333200000000600082015250565b6000612cf3601c83612cb2565b9150612cfe82612cbd565b601c82019050919050565b6000819050919050565b612d24612d1f826121e6565b612d09565b82525050565b6000612d3582612ce6565b9150612d418284612d13565b60208201915081905092915050565b7f696e76616c6964207369676e6174757265206c656e6774680000000000000000600082015250565b6000612d866018836124db565b9150612d9182612d50565b602082019050919050565b60006020820190508181036000830152612db581612d79565b9050919050565b600060ff82169050919050565b612dd281612dbc565b82525050565b6000608082019050612ded60008301876121f0565b612dfa6020830186612dc9565b612e0760408301856121f0565b612e1460608301846121f0565b95945050505050565b600081519050612e2c81611ef4565b92915050565b600060208284031215612e4857612e47611eb8565b5b6000612e5684828501612e1d565b91505092915050565b7f45434453413a20696e76616c6964207369676e61747572650000000000000000600082015250565b6000612e956018836124db565b9150612ea082612e5f565b602082019050919050565b60006020820190508181036000830152612ec481612e88565b9050919050565b7f4d7946756e6374696f6e3a20696e76616c6964207369676e6174757265000000600082015250565b6000612f01601d836124db565b9150612f0c82612ecb565b602082019050919050565b60006020820190508181036000830152612f3081612ef4565b9050919050565b6000612f438285612b97565b602082019150612f538284612b76565b6014820191508190509392505050565b7f4e487b7100000000000000000000000000000000000000000000000000000000600052602160045260246000fdfea2646970667358221220f7ec549c10dc8527109272b403f4fb99b37156526b64fb9774bbdb8f1a9e811c64736f6c63430008180033",
  "linkReferences": {},
  "deployedLinkReferences": {}
}