{
  "_format": "hh-sol-artifact-1",
  "contractName": "CacheProtocol",
  "sourceName": "contracts/CacheProtocol.sol",
  "abi": [
    {
      "inputs": [
        {
          "internalType": "address",
          "name": "peerid",
          "type": "address"
        }
      ],
      "stateMutability": "nonpayable",
      "type": "constructor"
    },
    {
      "inputs": [],
      "name": "ECDSAInvalidSignature",
      "type": "error"
    },
    {
      "inputs": [
        {
          "internalType": "uint256",
          "name": "length",
          "type": "uint256"
        }
      ],
      "name": "ECDSAInvalidSignatureLength",
      "type": "error"
    },
    {
      "inputs": [
        {
          "internalType": "bytes32",
          "name": "s",
          "type": "bytes32"
        }
      ],
      "name": "ECDSAInvalidSignatureS",
      "type": "error"
    },
    {
      "inputs": [
        {
          "internalType": "address",
          "name": "owner",
          "type": "address"
        }
      ],
      "name": "OwnableInvalidOwner",
      "type": "error"
    },
    {
      "inputs": [
        {
          "internalType": "address",
          "name": "account",
          "type": "address"
        }
      ],
      "name": "OwnableUnauthorizedAccount",
      "type": "error"
    },
    {
      "anonymous": false,
      "inputs": [
        {
          "indexed": true,
          "internalType": "address",
          "name": "nodeAcc",
          "type": "address"
        },
        {
          "indexed": false,
          "internalType": "uint256",
          "name": "reward",
          "type": "uint256"
        }
      ],
      "name": "Claim",
      "type": "event"
    },
    {
      "anonymous": false,
      "inputs": [
        {
          "indexed": true,
          "internalType": "address",
          "name": "nodeAcc",
          "type": "address"
        }
      ],
      "name": "Exit",
      "type": "event"
    },
    {
      "anonymous": false,
      "inputs": [
        {
          "indexed": true,
          "internalType": "address",
          "name": "teeAcc",
          "type": "address"
        },
        {
          "indexed": false,
          "internalType": "uint256",
          "name": "traffic",
          "type": "uint256"
        }
      ],
      "name": "OrderPayment",
      "type": "event"
    },
    {
      "anonymous": false,
      "inputs": [
        {
          "indexed": true,
          "internalType": "address",
          "name": "previousOwner",
          "type": "address"
        },
        {
          "indexed": true,
          "internalType": "address",
          "name": "newOwner",
          "type": "address"
        }
      ],
      "name": "OwnershipTransferred",
      "type": "event"
    },
    {
      "anonymous": false,
      "inputs": [
        {
          "indexed": true,
          "internalType": "address",
          "name": "nodeAcc",
          "type": "address"
        },
        {
          "indexed": true,
          "internalType": "uint256",
          "name": "tokenId",
          "type": "uint256"
        }
      ],
      "name": "Staking",
      "type": "event"
    },
    {
      "anonymous": false,
      "inputs": [
        {
          "indexed": true,
          "internalType": "address",
          "name": "nodeAcc",
          "type": "address"
        },
        {
          "indexed": false,
          "internalType": "uint256",
          "name": "traffic",
          "type": "uint256"
        }
      ],
      "name": "TrafficForwarding",
      "type": "event"
    },
    {
      "inputs": [
        {
          "internalType": "address",
          "name": "",
          "type": "address"
        }
      ],
      "name": "CacheReward",
      "outputs": [
        {
          "internalType": "uint256",
          "name": "",
          "type": "uint256"
        }
      ],
      "stateMutability": "view",
      "type": "function"
    },
    {
      "inputs": [
        {
          "internalType": "address",
          "name": "",
          "type": "address"
        }
      ],
      "name": "Node",
      "outputs": [
        {
          "internalType": "bool",
          "name": "created",
          "type": "bool"
        },
        {
          "internalType": "uint256",
          "name": "collerate",
          "type": "uint256"
        },
        {
          "internalType": "uint256",
          "name": "tokenId",
          "type": "uint256"
        },
        {
          "internalType": "string",
          "name": "endpoint",
          "type": "string"
        },
        {
          "internalType": "address",
          "name": "teeEth",
          "type": "address"
        },
        {
          "internalType": "bytes",
          "name": "teeCess",
          "type": "bytes"
        }
      ],
      "stateMutability": "view",
      "type": "function"
    },
    {
      "inputs": [
        {
          "internalType": "bytes32",
          "name": "",
          "type": "bytes32"
        }
      ],
      "name": "Order",
      "outputs": [
        {
          "internalType": "uint256",
          "name": "value",
          "type": "uint256"
        },
        {
          "internalType": "address",
          "name": "creater",
          "type": "address"
        },
        {
          "internalType": "address",
          "name": "node",
          "type": "address"
        },
        {
          "internalType": "uint256",
          "name": "term",
          "type": "uint256"
        }
      ],
      "stateMutability": "view",
      "type": "function"
    },
    {
      "inputs": [
        {
          "internalType": "address",
          "name": "",
          "type": "address"
        }
      ],
      "name": "RewardRecord",
      "outputs": [
        {
          "internalType": "uint256",
          "name": "",
          "type": "uint256"
        }
      ],
      "stateMutability": "view",
      "type": "function"
    },
    {
      "inputs": [
        {
          "internalType": "uint256",
          "name": "",
          "type": "uint256"
        }
      ],
      "name": "TeeNodes",
      "outputs": [
        {
          "internalType": "address",
          "name": "",
          "type": "address"
        }
      ],
      "stateMutability": "view",
      "type": "function"
    },
    {
      "inputs": [
        {
          "internalType": "uint256",
          "name": "",
          "type": "uint256"
        }
      ],
      "name": "TermTotalTraffic",
      "outputs": [
        {
          "internalType": "uint256",
          "name": "",
          "type": "uint256"
        }
      ],
      "stateMutability": "view",
      "type": "function"
    },
    {
      "inputs": [
        {
          "internalType": "uint256",
          "name": "",
          "type": "uint256"
        }
      ],
      "name": "TokenBonded",
      "outputs": [
        {
          "internalType": "bool",
          "name": "",
          "type": "bool"
        }
      ],
      "stateMutability": "view",
      "type": "function"
    },
    {
      "inputs": [
        {
          "internalType": "address",
          "name": "",
          "type": "address"
        }
      ],
      "name": "TrafficNum",
      "outputs": [
        {
          "internalType": "uint256",
          "name": "",
          "type": "uint256"
        }
      ],
      "stateMutability": "view",
      "type": "function"
    },
    {
      "inputs": [],
      "name": "UnitPrice",
      "outputs": [
        {
          "internalType": "uint256",
          "name": "",
          "type": "uint256"
        }
      ],
      "stateMutability": "view",
      "type": "function"
    },
    {
      "inputs": [
        {
          "internalType": "address",
          "name": "",
          "type": "address"
        },
        {
          "internalType": "address",
          "name": "",
          "type": "address"
        }
      ],
      "name": "UserTrafficMap",
      "outputs": [
        {
          "internalType": "uint256",
          "name": "",
          "type": "uint256"
        }
      ],
      "stateMutability": "view",
      "type": "function"
    },
    {
      "inputs": [
        {
          "internalType": "address",
          "name": "_teeAcc",
          "type": "address"
        },
        {
          "internalType": "uint256",
          "name": "_traffic",
          "type": "uint256"
        }
      ],
      "name": "cacheOrderPayment",
      "outputs": [],
      "stateMutability": "payable",
      "type": "function"
    },
    {
      "inputs": [],
      "name": "claim",
      "outputs": [],
      "stateMutability": "nonpayable",
      "type": "function"
    },
    {
      "inputs": [],
      "name": "exit",
      "outputs": [],
      "stateMutability": "nonpayable",
      "type": "function"
    },
    {
      "inputs": [],
      "name": "getCurrencyTerm",
      "outputs": [
        {
          "internalType": "uint256",
          "name": "",
          "type": "uint256"
        }
      ],
      "stateMutability": "view",
      "type": "function"
    },
    {
      "inputs": [
        {
          "internalType": "address",
          "name": "_account",
          "type": "address"
        },
        {
          "internalType": "uint256",
          "name": "_tokenId",
          "type": "uint256"
        }
      ],
      "name": "getMessageHash",
      "outputs": [
        {
          "internalType": "bytes32",
          "name": "",
          "type": "bytes32"
        }
      ],
      "stateMutability": "pure",
      "type": "function"
    },
    {
      "inputs": [
        {
          "internalType": "address",
          "name": "acc",
          "type": "address"
        },
        {
          "internalType": "uint256",
          "name": "tokenId",
          "type": "uint256"
        }
      ],
      "name": "isTokenOwner",
      "outputs": [
        {
          "internalType": "bool",
          "name": "",
          "type": "bool"
        }
      ],
      "stateMutability": "view",
      "type": "function"
    },
    {
      "inputs": [
        {
          "internalType": "bytes32",
          "name": "_msgHash",
          "type": "bytes32"
        },
        {
          "internalType": "bytes",
          "name": "_signature",
          "type": "bytes"
        }
      ],
      "name": "openRecover",
      "outputs": [
        {
          "internalType": "address",
          "name": "",
          "type": "address"
        }
      ],
      "stateMutability": "view",
      "type": "function"
    },
    {
      "inputs": [],
      "name": "owner",
      "outputs": [
        {
          "internalType": "address",
          "name": "",
          "type": "address"
        }
      ],
      "stateMutability": "view",
      "type": "function"
    },
    {
      "inputs": [
        {
          "internalType": "bytes32",
          "name": "_msgHash",
          "type": "bytes32"
        },
        {
          "internalType": "bytes",
          "name": "_signature",
          "type": "bytes"
        }
      ],
      "name": "recoverSigner",
      "outputs": [
        {
          "internalType": "address",
          "name": "",
          "type": "address"
        }
      ],
      "stateMutability": "pure",
      "type": "function"
    },
    {
      "inputs": [],
      "name": "renounceOwnership",
      "outputs": [],
      "stateMutability": "nonpayable",
      "type": "function"
    },
    {
      "inputs": [
        {
          "internalType": "address",
          "name": "nodeAcc",
          "type": "address"
        },
        {
          "internalType": "address",
          "name": "tokenAcc",
          "type": "address"
        },
        {
          "internalType": "uint256",
          "name": "tokenId",
          "type": "uint256"
        },
        {
          "internalType": "string",
          "name": "_endpoint",
          "type": "string"
        },
        {
          "internalType": "bytes",
          "name": "_signature",
          "type": "bytes"
        },
        {
          "internalType": "address",
          "name": "_teeEth",
          "type": "address"
        },
        {
          "internalType": "bytes",
          "name": "_teeCess",
          "type": "bytes"
        }
      ],
      "name": "staking",
      "outputs": [],
      "stateMutability": "payable",
      "type": "function"
    },
    {
      "inputs": [
        {
          "internalType": "bytes32",
          "name": "hash",
          "type": "bytes32"
        }
      ],
      "name": "toEthSignedMessageHash",
      "outputs": [
        {
          "internalType": "bytes32",
          "name": "",
          "type": "bytes32"
        }
      ],
      "stateMutability": "pure",
      "type": "function"
    },
    {
      "inputs": [
        {
          "internalType": "address",
          "name": "user",
          "type": "address"
        },
        {
          "internalType": "address",
          "name": "_nodeAcc",
          "type": "address"
        },
        {
          "internalType": "uint256",
          "name": "_traffic",
          "type": "uint256"
        }
      ],
      "name": "trafficForwarding",
      "outputs": [],
      "stateMutability": "nonpayable",
      "type": "function"
    },
    {
      "inputs": [
        {
          "internalType": "address",
          "name": "newOwner",
          "type": "address"
        }
      ],
      "name": "transferOwnership",
      "outputs": [],
      "stateMutability": "nonpayable",
      "type": "function"
    },
    {
      "inputs": [
        {
          "internalType": "uint256",
          "name": "_price",
          "type": "uint256"
        }
      ],
      "name": "updateUnitPrice",
      "outputs": [],
      "stateMutability": "nonpayable",
      "type": "function"
    },
    {
      "inputs": [
        {
          "internalType": "bytes32",
          "name": "_msgHash",
          "type": "bytes32"
        },
        {
          "internalType": "bytes",
          "name": "_signature",
          "type": "bytes"
        },
        {
          "internalType": "address",
          "name": "_signer",
          "type": "address"
        }
      ],
      "name": "verify",
      "outputs": [
        {
          "internalType": "bool",
          "name": "",
          "type": "bool"
        }
      ],
      "stateMutability": "pure",
      "type": "function"
    }
  ],
  "bytecode": "0x60806040523480156200001157600080fd5b5060405162003d1e38038062003d1e833981810160405281019062000037919062000247565b33600073ffffffffffffffffffffffffffffffffffffffff168173ffffffffffffffffffffffffffffffffffffffff1603620000ad5760006040517f1e4fbdf7000000000000000000000000000000000000000000000000000000008152600401620000a491906200028a565b60405180910390fd5b620000be816200011960201b60201c565b5080600160006101000a81548173ffffffffffffffffffffffffffffffffffffffff021916908373ffffffffffffffffffffffffffffffffffffffff1602179055504260028190555063470de4df60048190555050620002a7565b60008060009054906101000a900473ffffffffffffffffffffffffffffffffffffffff169050816000806101000a81548173ffffffffffffffffffffffffffffffffffffffff021916908373ffffffffffffffffffffffffffffffffffffffff1602179055508173ffffffffffffffffffffffffffffffffffffffff168173ffffffffffffffffffffffffffffffffffffffff167f8be0079c531659141344cd1fd0a4f28419497f9722a3daafe3b4186f6b6457e060405160405180910390a35050565b600080fd5b600073ffffffffffffffffffffffffffffffffffffffff82169050919050565b60006200020f82620001e2565b9050919050565b620002218162000202565b81146200022d57600080fd5b50565b600081519050620002418162000216565b92915050565b60006020828403121562000260576200025f620001dd565b5b6000620002708482850162000230565b91505092915050565b620002848162000202565b82525050565b6000602082019050620002a1600083018462000279565b92915050565b613a6780620002b76000396000f3fe6080604052600436106101815760003560e01c80638b166d64116100d1578063b6a525cb1161008a578063d6a5593911610064578063d6a55939146105f2578063e9fad8ee1461061d578063eeca2ab614610634578063f2fde38b1461067157610181565b8063b6a525cb14610570578063cb2432a7146105ad578063ce87a1fc146105d657610181565b80638b166d64146104145780638da5cb5b14610451578063918a15cf1461047c57806397aba7f9146104b957806398f7ceab146104f6578063b44665fc1461053357610181565b80636d19c92a1161013e578063715018a611610118578063715018a614610346578063804778fa1461035d578063823ac3731461039a57806388631905146103d757610181565b80636d19c92a1461029c5780636f0173b7146102de5780637094d9041461030957610181565b8063121f55761461018657806313366a50146101af5780634e71d92d146101cb578063512c91df146101e2578063564f4c8b1461021f578063581837df1461025f575b600080fd5b34801561019257600080fd5b506101ad60048036038101906101a89190612758565b61069a565b005b6101c960048036038101906101c491906127ab565b6108db565b005b3480156101d757600080fd5b506101e0610a0f565b005b3480156101ee57600080fd5b50610209600480360381019061020491906127ab565b610fe8565b6040516102169190612804565b60405180910390f35b34801561022b57600080fd5b506102466004803603810190610241919061284b565b61101b565b6040516102569493929190612896565b60405180910390f35b34801561026b57600080fd5b50610286600480360381019061028191906128db565b61108b565b6040516102939190612908565b60405180910390f35b3480156102a857600080fd5b506102c360048036038101906102be9190612923565b6110ca565b6040516102d596959493929190612a50565b60405180910390f35b3480156102ea57600080fd5b506102f3611243565b6040516103009190612abf565b60405180910390f35b34801561031557600080fd5b50610330600480360381019061032b91906128db565b611266565b60405161033d9190612ada565b60405180910390f35b34801561035257600080fd5b5061035b611286565b005b34801561036957600080fd5b50610384600480360381019061037f9190612af5565b61129a565b6040516103919190612abf565b60405180910390f35b3480156103a657600080fd5b506103c160048036038101906103bc9190612c6a565b6112bf565b6040516103ce9190612ada565b60405180910390f35b3480156103e357600080fd5b506103fe60048036038101906103f99190612923565b611302565b60405161040b9190612abf565b60405180910390f35b34801561042057600080fd5b5061043b60048036038101906104369190612923565b61131a565b6040516104489190612abf565b60405180910390f35b34801561045d57600080fd5b50610466611332565b6040516104739190612908565b60405180910390f35b34801561048857600080fd5b506104a3600480360381019061049e919061284b565b61135b565b6040516104b09190612804565b60405180910390f35b3480156104c557600080fd5b506104e060048036038101906104db9190612cd9565b61138b565b6040516104ed9190612908565b60405180910390f35b34801561050257600080fd5b5061051d600480360381019061051891906127ab565b611448565b60405161052a9190612ada565b60405180910390f35b34801561053f57600080fd5b5061055a600480360381019061055591906128db565b611521565b6040516105679190612abf565b60405180910390f35b34801561057c57600080fd5b5061059760048036038101906105929190612cd9565b611539565b6040516105a49190612908565b60405180910390f35b3480156105b957600080fd5b506105d460048036038101906105cf91906128db565b61162f565b005b6105f060048036038101906105eb9190612dd6565b611641565b005b3480156105fe57600080fd5b50610607611a41565b6040516106149190612abf565b60405180910390f35b34801561062957600080fd5b50610632611a47565b005b34801561064057600080fd5b5061065b60048036038101906106569190612923565b611fef565b6040516106689190612abf565b60405180910390f35b34801561067d57600080fd5b5061069860048036038101906106939190612923565b612007565b005b60006106a4611243565b905081600b60008673ffffffffffffffffffffffffffffffffffffffff1673ffffffffffffffffffffffffffffffffffffffff16815260200190815260200160002060003373ffffffffffffffffffffffffffffffffffffffff1673ffffffffffffffffffffffffffffffffffffffff16815260200190815260200160002060008282546107329190612efb565b9250508190555081600760008573ffffffffffffffffffffffffffffffffffffffff1673ffffffffffffffffffffffffffffffffffffffff16815260200190815260200160002060008282546107889190612f2f565b9250508190555060006008600083815260200190815260200160002054036107f2576005548260086000848152602001908152602001600020546107cc9190612f2f565b6107d69190612f2f565b600860008381526020019081526020016000208190555061081d565b816008600083815260200190815260200160002060008282546108159190612f2f565b925050819055505b816005600082825461082f9190612f2f565b92505081905550600454826108449190612f63565b600d60008573ffffffffffffffffffffffffffffffffffffffff1673ffffffffffffffffffffffffffffffffffffffff168152602001908152602001600020819055508273ffffffffffffffffffffffffffffffffffffffff167f4f491f995276ce28befd7703c52a267ef1b9c6e35d688422e9c594aa9bb8728e836040516108cd9190612abf565b60405180910390a250505050565b600454816108e99190612f63565b341461092a576040517f08c379a000000000000000000000000000000000000000000000000000000000815260040161092190612ff1565b60405180910390fd5b80600b60003373ffffffffffffffffffffffffffffffffffffffff1673ffffffffffffffffffffffffffffffffffffffff16815260200190815260200160002060008473ffffffffffffffffffffffffffffffffffffffff1673ffffffffffffffffffffffffffffffffffffffff16815260200190815260200160002060008282546109b69190612f2f565b925050819055508173ffffffffffffffffffffffffffffffffffffffff167faaa9d50df3d6b8efecfb6e09c3536b0dd0a960bb6bfdad76a85fb6e7811eea9f82604051610a039190612abf565b60405180910390a25050565b6000610a19611243565b9050600181610a289190612efb565b600e60003373ffffffffffffffffffffffffffffffffffffffff1673ffffffffffffffffffffffffffffffffffffffff1681526020019081526020016000205410610aa8576040517f08c379a0000000000000000000000000000000000000000000000000000000008152600401610a9f90613083565b60405180910390fd5b6000600960003373ffffffffffffffffffffffffffffffffffffffff1673ffffffffffffffffffffffffffffffffffffffff1681526020019081526020016000206040518060c00160405290816000820160009054906101000a900460ff161515151581526020016001820154815260200160028201548152602001600382018054610b33906130d2565b80601f0160208091040260200160405190810160405280929190818152602001828054610b5f906130d2565b8015610bac5780601f10610b8157610100808354040283529160200191610bac565b820191906000526020600020905b815481529060010190602001808311610b8f57829003601f168201915b505050505081526020016004820160009054906101000a900473ffffffffffffffffffffffffffffffffffffffff1673ffffffffffffffffffffffffffffffffffffffff1673ffffffffffffffffffffffffffffffffffffffff168152602001600582018054610c1b906130d2565b80601f0160208091040260200160405190810160405280929190818152602001828054610c47906130d2565b8015610c945780601f10610c6957610100808354040283529160200191610c94565b820191906000526020600020905b815481529060010190602001808311610c7757829003601f168201915b50505050508152505090508060000151610ce3576040517f08c379a0000000000000000000000000000000000000000000000000000000008152600401610cda9061314f565b60405180910390fd5b6000610ced61208d565b9050600060086000600186610d029190612efb565b815260200190815260200160002054600354610d1e9190612f2f565b9050600081600354610d30919061319e565b90506000600760003373ffffffffffffffffffffffffffffffffffffffff1673ffffffffffffffffffffffffffffffffffffffff1681526020019081526020016000205490506000600d60003373ffffffffffffffffffffffffffffffffffffffff1673ffffffffffffffffffffffffffffffffffffffff168152602001908152602001600020549050600069152d02c7e14af6800000600a6002878787610dd89190612efb565b8a610de39190612f63565b88610dee9190612f2f565b610df8919061319e565b610e029190612f63565b610e0c919061319e565b610e169190612f63565b90506000606460288385610e2a9190612f2f565b610e349190612f63565b610e3e919061319e565b9050808284610e4d9190612f2f565b610e579190612efb565b600d60003373ffffffffffffffffffffffffffffffffffffffff1673ffffffffffffffffffffffffffffffffffffffff168152602001908152602001600020819055503373ffffffffffffffffffffffffffffffffffffffff166108fc829081150290604051600060405180830381858888f19350505050158015610ee0573d6000803e3d6000fd5b50600189610eee9190612efb565b600e60003373ffffffffffffffffffffffffffffffffffffffff1673ffffffffffffffffffffffffffffffffffffffff168152602001908152602001600020819055506000600760003373ffffffffffffffffffffffffffffffffffffffff1673ffffffffffffffffffffffffffffffffffffffff168152602001908152602001600020819055508360056000828254610f889190612efb565b925050819055503373ffffffffffffffffffffffffffffffffffffffff167f47cee97cb7acd717b3c0aa1435d004cd5b3c8c57d70dbceb4e4458bbd60e39d482604051610fd59190612abf565b60405180910390a2505050505050505050565b60008282604051602001610ffd929190613238565b60405160208183030381529060405280519060200120905092915050565b600f6020528060005260406000206000915090508060000154908060010160009054906101000a900473ffffffffffffffffffffffffffffffffffffffff16908060020160009054906101000a900473ffffffffffffffffffffffffffffffffffffffff16908060030154905084565b600c818154811061109b57600080fd5b906000526020600020016000915054906101000a900473ffffffffffffffffffffffffffffffffffffffff1681565b60096020528060005260406000206000915090508060000160009054906101000a900460ff169080600101549080600201549080600301805461110c906130d2565b80601f0160208091040260200160405190810160405280929190818152602001828054611138906130d2565b80156111855780601f1061115a57610100808354040283529160200191611185565b820191906000526020600020905b81548152906001019060200180831161116857829003601f168201915b5050505050908060040160009054906101000a900473ffffffffffffffffffffffffffffffffffffffff16908060050180546111c0906130d2565b80601f01602080910402602001604051908101604052809291908181526020018280546111ec906130d2565b80156112395780601f1061120e57610100808354040283529160200191611239565b820191906000526020600020905b81548152906001019060200180831161121c57829003601f168201915b5050505050905086565b600062093a80600254426112579190612efb565b611261919061319e565b905090565b600a6020528060005260406000206000915054906101000a900460ff1681565b61128e6120ea565b6112986000612171565b565b600b602052816000526040600020602052806000526040600020600091509150505481565b60008173ffffffffffffffffffffffffffffffffffffffff166112e2858561138b565b73ffffffffffffffffffffffffffffffffffffffff161490509392505050565b60076020528060005260406000206000915090505481565b600d6020528060005260406000206000915090505481565b60008060009054906101000a900473ffffffffffffffffffffffffffffffffffffffff16905090565b60008160405160200161136e91906132dc565b604051602081830303815290604052805190602001209050919050565b600060418251146113d1576040517f08c379a00000000000000000000000000000000000000000000000000000000081526004016113c89061334e565b60405180910390fd5b60008060006020850151925060408501519150606085015160001a905060018682858560405160008152602001604052604051611411949392919061338a565b6020604051602081039080840390855afa158015611433573d6000803e3d6000fd5b50505060206040510351935050505092915050565b600080600160009054906101000a900473ffffffffffffffffffffffffffffffffffffffff1673ffffffffffffffffffffffffffffffffffffffff16636352211e846040518263ffffffff1660e01b81526004016114a69190612abf565b602060405180830381865afa1580156114c3573d6000803e3d6000fd5b505050506040513d601f19601f820116820180604052508101906114e791906133e4565b90508373ffffffffffffffffffffffffffffffffffffffff168173ffffffffffffffffffffffffffffffffffffffff161491505092915050565b60086020528060005260406000206000915090505481565b6000806115468484612235565b9050600073ffffffffffffffffffffffffffffffffffffffff168173ffffffffffffffffffffffffffffffffffffffff16036115b7576040517f08c379a00000000000000000000000000000000000000000000000000000000081526004016115ae9061345d565b60405180910390fd5b3373ffffffffffffffffffffffffffffffffffffffff168173ffffffffffffffffffffffffffffffffffffffff1614611625576040517f08c379a000000000000000000000000000000000000000000000000000000000815260040161161c906134c9565b60405180910390fd5b8091505092915050565b6116376120ea565b8060048190555050565b6000151561164f8787611448565b151503611691576040517f08c379a000000000000000000000000000000000000000000000000000000000815260040161168890613535565b60405180910390fd5b600061169d8887610fe8565b905060006116aa8261135b565b9050600015156116bb82878b6112bf565b1515036116fd576040517f08c379a00000000000000000000000000000000000000000000000000000000081526004016116f4906135a1565b60405180910390fd5b6040518060c001604052806001151581526020013481526020018881526020018781526020018573ffffffffffffffffffffffffffffffffffffffff16815260200184815250600960008b73ffffffffffffffffffffffffffffffffffffffff1673ffffffffffffffffffffffffffffffffffffffff16815260200190815260200160002060008201518160000160006101000a81548160ff021916908315150217905550602082015181600101556040820151816002015560608201518160030190816117cb919061376d565b5060808201518160040160006101000a81548173ffffffffffffffffffffffffffffffffffffffff021916908373ffffffffffffffffffffffffffffffffffffffff16021790555060a0820151816005019081611828919061389a565b50905050600073ffffffffffffffffffffffffffffffffffffffff168473ffffffffffffffffffffffffffffffffffffffff16146118c457600c849080600181540180825580915050600190039060005260206000200160009091909190916101000a81548173ffffffffffffffffffffffffffffffffffffffff021916908373ffffffffffffffffffffffffffffffffffffffff1602179055505b6000600760008b73ffffffffffffffffffffffffffffffffffffffff1673ffffffffffffffffffffffffffffffffffffffff168152602001908152602001600020819055506000600d60008b73ffffffffffffffffffffffffffffffffffffffff1673ffffffffffffffffffffffffffffffffffffffff168152602001908152602001600020819055506000600e60008b73ffffffffffffffffffffffffffffffffffffffff1673ffffffffffffffffffffffffffffffffffffffff1681526020019081526020016000208190555034600660008282546119a59190612f2f565b925050819055506001600a600089815260200190815260200160002060006101000a81548160ff0219169083151502179055506001600360008282546119eb9190612f2f565b92505081905550868973ffffffffffffffffffffffffffffffffffffffff167fb831f69f1cebc12b23cd864ce5bfea2669d01956050a0147d71d418074559c2160405160405180910390a3505050505050505050565b60045481565b6000600960003373ffffffffffffffffffffffffffffffffffffffff1673ffffffffffffffffffffffffffffffffffffffff1681526020019081526020016000206040518060c00160405290816000820160009054906101000a900460ff161515151581526020016001820154815260200160028201548152602001600382018054611ad2906130d2565b80601f0160208091040260200160405190810160405280929190818152602001828054611afe906130d2565b8015611b4b5780601f10611b2057610100808354040283529160200191611b4b565b820191906000526020600020905b815481529060010190602001808311611b2e57829003601f168201915b505050505081526020016004820160009054906101000a900473ffffffffffffffffffffffffffffffffffffffff1673ffffffffffffffffffffffffffffffffffffffff1673ffffffffffffffffffffffffffffffffffffffff168152602001600582018054611bba906130d2565b80601f0160208091040260200160405190810160405280929190818152602001828054611be6906130d2565b8015611c335780601f10611c0857610100808354040283529160200191611c33565b820191906000526020600020905b815481529060010190602001808311611c1657829003601f168201915b50505050508152505090508060000151611c82576040517f08c379a0000000000000000000000000000000000000000000000000000000008152600401611c799061314f565b60405180910390fd5b3373ffffffffffffffffffffffffffffffffffffffff166108fc82602001519081150290604051600060405180830381858888f19350505050158015611ccc573d6000803e3d6000fd5b50600073ffffffffffffffffffffffffffffffffffffffff16816080015173ffffffffffffffffffffffffffffffffffffffff1614611db45760005b600c805490508161ffff1611611db257816080015173ffffffffffffffffffffffffffffffffffffffff16600c8261ffff1681548110611d4b57611d4a61396c565b5b9060005260206000200160009054906101000a900473ffffffffffffffffffffffffffffffffffffffff1673ffffffffffffffffffffffffffffffffffffffff1603611d9f57611d9e8161ffff16612261565b5b8080611daa906139a9565b915050611d08565b505b600760003373ffffffffffffffffffffffffffffffffffffffff1673ffffffffffffffffffffffffffffffffffffffff1681526020019081526020016000205460056000828254611e059190612efb565b92505081905550600760003373ffffffffffffffffffffffffffffffffffffffff1673ffffffffffffffffffffffffffffffffffffffff16815260200190815260200160002060009055600960003373ffffffffffffffffffffffffffffffffffffffff1673ffffffffffffffffffffffffffffffffffffffff168152602001908152602001600020600080820160006101000a81549060ff021916905560018201600090556002820160009055600382016000611ec39190612613565b6004820160006101000a81549073ffffffffffffffffffffffffffffffffffffffff0219169055600582016000611efa9190612653565b5050600e60003373ffffffffffffffffffffffffffffffffffffffff1673ffffffffffffffffffffffffffffffffffffffff16815260200190815260200160002060009055600d60003373ffffffffffffffffffffffffffffffffffffffff1673ffffffffffffffffffffffffffffffffffffffff16815260200190815260200160002060009055600a60008260400151815260200190815260200160002060006101000a81549060ff02191690553373ffffffffffffffffffffffffffffffffffffffff167f7c79e6e24ed041d1072d54523b53956f01b91b835f0490856370594d9d14470e60405160405180910390a250565b600e6020528060005260406000206000915090505481565b61200f6120ea565b600073ffffffffffffffffffffffffffffffffffffffff168173ffffffffffffffffffffffffffffffffffffffff16036120815760006040517f1e4fbdf70000000000000000000000000000000000000000000000000000000081526004016120789190612908565b60405180910390fd5b61208a81612171565b50565b600061177061209a611243565b60266120a69190612f63565b6107d06120b39190612f2f565b10156120e1576120c1611243565b60266120cd9190612f63565b6107d06120da9190612f2f565b90506120e7565b61177090505b90565b6120f2612357565b73ffffffffffffffffffffffffffffffffffffffff16612110611332565b73ffffffffffffffffffffffffffffffffffffffff161461216f57612133612357565b6040517f118cdaa70000000000000000000000000000000000000000000000000000000081526004016121669190612908565b60405180910390fd5b565b60008060009054906101000a900473ffffffffffffffffffffffffffffffffffffffff169050816000806101000a81548173ffffffffffffffffffffffffffffffffffffffff021916908373ffffffffffffffffffffffffffffffffffffffff1602179055508173ffffffffffffffffffffffffffffffffffffffff168173ffffffffffffffffffffffffffffffffffffffff167f8be0079c531659141344cd1fd0a4f28419497f9722a3daafe3b4186f6b6457e060405160405180910390a35050565b600080600080612245868661235f565b92509250925061225582826123bb565b82935050505092915050565b600c6001600c805490506122759190612efb565b815481106122865761228561396c565b5b9060005260206000200160009054906101000a900473ffffffffffffffffffffffffffffffffffffffff16600c82815481106122c5576122c461396c565b5b9060005260206000200160006101000a81548173ffffffffffffffffffffffffffffffffffffffff021916908373ffffffffffffffffffffffffffffffffffffffff160217905550600c80548061231f5761231e6139d3565b5b6001900381819060005260206000200160006101000a81549073ffffffffffffffffffffffffffffffffffffffff0219169055905550565b600033905090565b600080600060418451036123a45760008060006020870151925060408701519150606087015160001a90506123968882858561251f565b9550955095505050506123b4565b60006002855160001b9250925092505b9250925092565b600060038111156123cf576123ce613a02565b5b8260038111156123e2576123e1613a02565b5b031561251b57600160038111156123fc576123fb613a02565b5b82600381111561240f5761240e613a02565b5b03612446576040517ff645eedf00000000000000000000000000000000000000000000000000000000815260040160405180910390fd5b6002600381111561245a57612459613a02565b5b82600381111561246d5761246c613a02565b5b036124b2578060001c6040517ffce698f70000000000000000000000000000000000000000000000000000000081526004016124a99190612abf565b60405180910390fd5b6003808111156124c5576124c4613a02565b5b8260038111156124d8576124d7613a02565b5b0361251a57806040517fd78bce0c0000000000000000000000000000000000000000000000000000000081526004016125119190612804565b60405180910390fd5b5b5050565b60008060007f7fffffffffffffffffffffffffffffff5d576e7357a4501ddfe92f46681b20a08460001c111561255f576000600385925092509250612609565b600060018888888860405160008152602001604052604051612584949392919061338a565b6020604051602081039080840390855afa1580156125a6573d6000803e3d6000fd5b505050602060405103519050600073ffffffffffffffffffffffffffffffffffffffff168173ffffffffffffffffffffffffffffffffffffffff16036125fa57600060016000801b93509350935050612609565b8060008060001b935093509350505b9450945094915050565b50805461261f906130d2565b6000825580601f106126315750612650565b601f01602090049060005260206000209081019061264f9190612693565b5b50565b50805461265f906130d2565b6000825580601f106126715750612690565b601f01602090049060005260206000209081019061268f9190612693565b5b50565b5b808211156126ac576000816000905550600101612694565b5090565b6000604051905090565b600080fd5b600080fd5b600073ffffffffffffffffffffffffffffffffffffffff82169050919050565b60006126ef826126c4565b9050919050565b6126ff816126e4565b811461270a57600080fd5b50565b60008135905061271c816126f6565b92915050565b6000819050919050565b61273581612722565b811461274057600080fd5b50565b6000813590506127528161272c565b92915050565b600080600060608486031215612771576127706126ba565b5b600061277f8682870161270d565b93505060206127908682870161270d565b92505060406127a186828701612743565b9150509250925092565b600080604083850312156127c2576127c16126ba565b5b60006127d08582860161270d565b92505060206127e185828601612743565b9150509250929050565b6000819050919050565b6127fe816127eb565b82525050565b600060208201905061281960008301846127f5565b92915050565b612828816127eb565b811461283357600080fd5b50565b6000813590506128458161281f565b92915050565b600060208284031215612861576128606126ba565b5b600061286f84828501612836565b91505092915050565b61288181612722565b82525050565b612890816126e4565b82525050565b60006080820190506128ab6000830187612878565b6128b86020830186612887565b6128c56040830185612887565b6128d26060830184612878565b95945050505050565b6000602082840312156128f1576128f06126ba565b5b60006128ff84828501612743565b91505092915050565b600060208201905061291d6000830184612887565b92915050565b600060208284031215612939576129386126ba565b5b60006129478482850161270d565b91505092915050565b60008115159050919050565b61296581612950565b82525050565b600081519050919050565b600082825260208201905092915050565b60005b838110156129a557808201518184015260208101905061298a565b60008484015250505050565b6000601f19601f8301169050919050565b60006129cd8261296b565b6129d78185612976565b93506129e7818560208601612987565b6129f0816129b1565b840191505092915050565b600081519050919050565b600082825260208201905092915050565b6000612a22826129fb565b612a2c8185612a06565b9350612a3c818560208601612987565b612a45816129b1565b840191505092915050565b600060c082019050612a65600083018961295c565b612a726020830188612878565b612a7f6040830187612878565b8181036060830152612a9181866129c2565b9050612aa06080830185612887565b81810360a0830152612ab28184612a17565b9050979650505050505050565b6000602082019050612ad46000830184612878565b92915050565b6000602082019050612aef600083018461295c565b92915050565b60008060408385031215612b0c57612b0b6126ba565b5b6000612b1a8582860161270d565b9250506020612b2b8582860161270d565b9150509250929050565b600080fd5b600080fd5b7f4e487b7100000000000000000000000000000000000000000000000000000000600052604160045260246000fd5b612b77826129b1565b810181811067ffffffffffffffff82111715612b9657612b95612b3f565b5b80604052505050565b6000612ba96126b0565b9050612bb58282612b6e565b919050565b600067ffffffffffffffff821115612bd557612bd4612b3f565b5b612bde826129b1565b9050602081019050919050565b82818337600083830152505050565b6000612c0d612c0884612bba565b612b9f565b905082815260208101848484011115612c2957612c28612b3a565b5b612c34848285612beb565b509392505050565b600082601f830112612c5157612c50612b35565b5b8135612c61848260208601612bfa565b91505092915050565b600080600060608486031215612c8357612c826126ba565b5b6000612c9186828701612836565b935050602084013567ffffffffffffffff811115612cb257612cb16126bf565b5b612cbe86828701612c3c565b9250506040612ccf8682870161270d565b9150509250925092565b60008060408385031215612cf057612cef6126ba565b5b6000612cfe85828601612836565b925050602083013567ffffffffffffffff811115612d1f57612d1e6126bf565b5b612d2b85828601612c3c565b9150509250929050565b600067ffffffffffffffff821115612d5057612d4f612b3f565b5b612d59826129b1565b9050602081019050919050565b6000612d79612d7484612d35565b612b9f565b905082815260208101848484011115612d9557612d94612b3a565b5b612da0848285612beb565b509392505050565b600082601f830112612dbd57612dbc612b35565b5b8135612dcd848260208601612d66565b91505092915050565b600080600080600080600060e0888a031215612df557612df46126ba565b5b6000612e038a828b0161270d565b9750506020612e148a828b0161270d565b9650506040612e258a828b01612743565b955050606088013567ffffffffffffffff811115612e4657612e456126bf565b5b612e528a828b01612da8565b945050608088013567ffffffffffffffff811115612e7357612e726126bf565b5b612e7f8a828b01612c3c565b93505060a0612e908a828b0161270d565b92505060c088013567ffffffffffffffff811115612eb157612eb06126bf565b5b612ebd8a828b01612c3c565b91505092959891949750929550565b7f4e487b7100000000000000000000000000000000000000000000000000000000600052601160045260246000fd5b6000612f0682612722565b9150612f1183612722565b9250828203905081811115612f2957612f28612ecc565b5b92915050565b6000612f3a82612722565b9150612f4583612722565b9250828201905080821115612f5d57612f5c612ecc565b5b92915050565b6000612f6e82612722565b9150612f7983612722565b9250828202612f8781612722565b91508282048414831517612f9e57612f9d612ecc565b5b5092915050565b7f496e73756666696369656e7420616d6f756e7400000000000000000000000000600082015250565b6000612fdb601383612976565b9150612fe682612fa5565b602082019050919050565b6000602082019050818103600083015261300a81612fce565b9050919050565b7f506c65617365207761697420756e74696c20746865206e657874207465726d2060008201527f746f20636c61696d207468652072657761726400000000000000000000000000602082015250565b600061306d603383612976565b915061307882613011565b604082019050919050565b6000602082019050818103600083015261309c81613060565b9050919050565b7f4e487b7100000000000000000000000000000000000000000000000000000000600052602260045260246000fd5b600060028204905060018216806130ea57607f821691505b6020821081036130fd576130fc6130a3565b5b50919050565b7f4361636865206e6f6465206e6f74207265676973746572656400000000000000600082015250565b6000613139601983612976565b915061314482613103565b602082019050919050565b600060208201905081810360008301526131688161312c565b9050919050565b7f4e487b7100000000000000000000000000000000000000000000000000000000600052601260045260246000fd5b60006131a982612722565b91506131b483612722565b9250826131c4576131c361316f565b5b828204905092915050565b60008160601b9050919050565b60006131e7826131cf565b9050919050565b60006131f9826131dc565b9050919050565b61321161320c826126e4565b6131ee565b82525050565b6000819050919050565b61323261322d82612722565b613217565b82525050565b60006132448285613200565b6014820191506132548284613221565b6020820191508190509392505050565b600081905092915050565b7f19457468657265756d205369676e6564204d6573736167653a0a333200000000600082015250565b60006132a5601c83613264565b91506132b08261326f565b601c82019050919050565b6000819050919050565b6132d66132d1826127eb565b6132bb565b82525050565b60006132e782613298565b91506132f382846132c5565b60208201915081905092915050565b7f696e76616c6964207369676e6174757265206c656e6774680000000000000000600082015250565b6000613338601883612976565b915061334382613302565b602082019050919050565b600060208201905081810360008301526133678161332b565b9050919050565b600060ff82169050919050565b6133848161336e565b82525050565b600060808201905061339f60008301876127f5565b6133ac602083018661337b565b6133b960408301856127f5565b6133c660608301846127f5565b95945050505050565b6000815190506133de816126f6565b92915050565b6000602082840312156133fa576133f96126ba565b5b6000613408848285016133cf565b91505092915050565b7f45434453413a20696e76616c6964207369676e61747572650000000000000000600082015250565b6000613447601883612976565b915061345282613411565b602082019050919050565b600060208201905081810360008301526134768161343a565b9050919050565b7f4d7946756e6374696f6e3a20696e76616c6964207369676e6174757265000000600082015250565b60006134b3601d83612976565b91506134be8261347d565b602082019050919050565b600060208201905081810360008301526134e2816134a6565b9050919050565b7f4e6f742074686520746f6b656e20686f6c646572000000000000000000000000600082015250565b600061351f601483612976565b915061352a826134e9565b602082019050919050565b6000602082019050818103600083015261354e81613512565b9050919050565b7f766572696679207369676e6174757265206661696c6564000000000000000000600082015250565b600061358b601783612976565b915061359682613555565b602082019050919050565b600060208201905081810360008301526135ba8161357e565b9050919050565b60008190508160005260206000209050919050565b60006020601f8301049050919050565b600082821b905092915050565b6000600883026136237fffffffffffffffffffffffffffffffffffffffffffffffffffffffffffffffff826135e6565b61362d86836135e6565b95508019841693508086168417925050509392505050565b6000819050919050565b600061366a61366561366084612722565b613645565b612722565b9050919050565b6000819050919050565b6136848361364f565b61369861369082613671565b8484546135f3565b825550505050565b600090565b6136ad6136a0565b6136b881848461367b565b505050565b5b818110156136dc576136d16000826136a5565b6001810190506136be565b5050565b601f821115613721576136f2816135c1565b6136fb846135d6565b8101602085101561370a578190505b61371e613716856135d6565b8301826136bd565b50505b505050565b600082821c905092915050565b600061374460001984600802613726565b1980831691505092915050565b600061375d8383613733565b9150826002028217905092915050565b6137768261296b565b67ffffffffffffffff81111561378f5761378e612b3f565b5b61379982546130d2565b6137a48282856136e0565b600060209050601f8311600181146137d757600084156137c5578287015190505b6137cf8582613751565b865550613837565b601f1984166137e5866135c1565b60005b8281101561380d578489015182556001820191506020850194506020810190506137e8565b8683101561382a5784890151613826601f891682613733565b8355505b6001600288020188555050505b505050505050565b60008190508160005260206000209050919050565b601f821115613895576138668161383f565b61386f846135d6565b8101602085101561387e578190505b61389261388a856135d6565b8301826136bd565b50505b505050565b6138a3826129fb565b67ffffffffffffffff8111156138bc576138bb612b3f565b5b6138c682546130d2565b6138d1828285613854565b600060209050601f83116001811461390457600084156138f2578287015190505b6138fc8582613751565b865550613964565b601f1984166139128661383f565b60005b8281101561393a57848901518255600182019150602085019450602081019050613915565b868310156139575784890151613953601f891682613733565b8355505b6001600288020188555050505b505050505050565b7f4e487b7100000000000000000000000000000000000000000000000000000000600052603260045260246000fd5b600061ffff82169050919050565b60006139b48261399b565b915061ffff82036139c8576139c7612ecc565b5b600182019050919050565b7f4e487b7100000000000000000000000000000000000000000000000000000000600052603160045260246000fd5b7f4e487b7100000000000000000000000000000000000000000000000000000000600052602160045260246000fdfea264697066735822122063a0a4df4c60841f32d7afd59cda0c71f10c96124642f5a3a43a8e9ca23b513664736f6c63430008180033",
  "linkReferences": {},
  "deployedLinkReferences": {}
}